{
  "_format": "hh-sol-artifact-1",
  "contractName": "MockV3Aggregator",
  "sourceName": "contracts/MockV3Aggregator.sol",
  "abi": [
    {
      "inputs": [
        {
          "internalType": "uint8",
          "name": "_decimals",
          "type": "uint8"
        },
        {
          "internalType": "int256",
          "name": "_initialAnswer",
          "type": "int256"
        }
      ],
      "stateMutability": "nonpayable",
      "type": "constructor"
    },
    {
      "inputs": [],
      "name": "decimals",
      "outputs": [
        {
          "internalType": "uint8",
          "name": "",
          "type": "uint8"
        }
      ],
      "stateMutability": "view",
      "type": "function"
    },
    {
      "inputs": [],
      "name": "latestAnswer",
      "outputs": [
        {
          "internalType": "int256",
          "name": "",
          "type": "int256"
        }
      ],
      "stateMutability": "view",
      "type": "function"
    },
    {
      "inputs": [],
      "name": "latestRoundData",
      "outputs": [
        {
          "internalType": "uint80",
          "name": "roundId",
          "type": "uint80"
        },
        {
          "internalType": "int256",
          "name": "answer",
          "type": "int256"
        },
        {
          "internalType": "uint256",
          "name": "startedAt",
          "type": "uint256"
        },
        {
          "internalType": "uint256",
          "name": "updatedAt",
          "type": "uint256"
        },
        {
          "internalType": "uint80",
          "name": "answeredInRound",
          "type": "uint80"
        }
      ],
      "stateMutability": "view",
      "type": "function"
    },
    {
      "inputs": [
        {
          "internalType": "int256",
          "name": "_answer",
          "type": "int256"
        }
      ],
      "name": "updateAnswer",
      "outputs": [],
      "stateMutability": "nonpayable",
      "type": "function"
    }
  ],
  "bytecode": "0x608060405234801561001057600080fd5b5060405161024738038061024783398101604081905261002f91610061565b6000805460ff191660ff93909316929092179091556001908155600280546001600160501b0319169091179055610095565b6000806040838503121561007457600080fd5b825160ff8116811461008557600080fd5b6020939093015192949293505050565b6101a3806100a46000396000f3fe608060405234801561001057600080fd5b506004361061004c5760003560e01c8063313ce5671461005157806350d25bcd14610075578063a87a20ce1461008c578063feaf968c146100a1575b600080fd5b60005461005e9060ff1681565b60405160ff90911681526020015b60405180910390f35b61007e60015481565b60405190815260200161006c565b61009f61009a366004610120565b6100da565b005b600254600154604080516001600160501b039093168084526020840192909252429083018190526060830152608082015260a00161006c565b6001819055600280546001600160501b03169060006100f883610139565b91906101000a8154816001600160501b0302191690836001600160501b031602179055505050565b60006020828403121561013257600080fd5b5035919050565b60006001600160501b0380831681810361016357634e487b7160e01b600052601160045260246000fd5b600101939250505056fea2646970667358221220e2850de050ed13101ca8f425e42d33b865ef6e36862e1cdc819f489541cbffc364736f6c63430008180033",
  "linkReferences": {},
  "deployedLinkReferences": {}
}