{"contracts/AegisSentinel.sol":{"AegisSentinel":{"abi":[{"inputs":[{"internalType":"address","name":"_priceFeed","type":"address"},{"internalType":"uint256","name":"_priceThreshold","type":"uint256"}],"stateMutability":"nonpayable","type":"constructor"},{"inputs":[],"name":"EnforcedPause","type":"error"},{"inputs":[],"name":"ExpectedPause","type":"error"},{"inputs":[{"internalType":"address","name":"owner","type":"address"}],"name":"OwnableInvalidOwner","type":"error"},{"inputs":[{"internalType":"address","name":"account","type":"address"}],"name":"OwnableUnauthorizedAccount","type":"error"},{"inputs":[],"name":"ReentrancyGuardReentrantCall","type":"error"},{"anonymous":false,"inputs":[{"indexed":false,"internalType":"uint256","name":"riskLevel","type":"uint256"},{"indexed":false,"internalType":"address","name":"triggeredBy","type":"address"}],"name":"AttackSimulated","type":"event"},{"anonymous":false,"inputs":[{"indexed":true,"internalType":"address","name":"user","type":"address"},{"indexed":false,"internalType":"uint256","name":"amount","type":"uint256"}],"name":"Borrowed","type":"event"},{"anonymous":false,"inputs":[{"indexed":true,"internalType":"address","name":"user","type":"address"},{"indexed":false,"internalType":"uint256","name":"amount","type":"uint256"}],"name":"Deposited","type":"event"},{"anonymous":false,"inputs":[{"indexed":false,"internalType":"address","name":"by","type":"address"}],"name":"EmergencyPauseTriggered","type":"event"},{"anonymous":false,"inputs":[{"indexed":true,"internalType":"bytes4","name":"selector","type":"bytes4"},{"indexed":false,"internalType":"string","name":"name","type":"string"},{"indexed":false,"internalType":"uint256","name":"riskScore","type":"uint256"}],"name":"FunctionBlocked","type":"event"},{"anonymous":false,"inputs":[{"indexed":true,"internalType":"bytes4","name":"selector","type":"bytes4"},{"indexed":false,"internalType":"string","name":"name","type":"string"}],"name":"FunctionUnblocked","type":"event"},{"anonymous":false,"inputs":[{"indexed":true,"internalType":"address","name":"caller","type":"address"},{"indexed":true,"internalType":"address","name":"target","type":"address"}],"name":"Liquidated","type":"event"},{"anonymous":false,"inputs":[{"indexed":true,"internalType":"address","name":"previousOwner","type":"address"},{"indexed":true,"internalType":"address","name":"newOwner","type":"address"}],"name":"OwnershipTransferred","type":"event"},{"anonymous":false,"inputs":[{"indexed":false,"internalType":"address","name":"account","type":"address"}],"name":"Paused","type":"event"},{"anonymous":false,"inputs":[{"indexed":true,"internalType":"address","name":"user","type":"address"},{"indexed":false,"internalType":"uint256","name":"amount","type":"uint256"}],"name":"Repaid","type":"event"},{"anonymous":false,"inputs":[{"indexed":true,"internalType":"uint256","name":"newScore","type":"uint256"},{"indexed":false,"internalType":"uint256","name":"priceDeviation","type":"uint256"},{"indexed":false,"internalType":"string","name":"trigger","type":"string"}],"name":"RiskUpdated","type":"event"},{"anonymous":false,"inputs":[{"indexed":true,"internalType":"address","name":"user","type":"address"},{"indexed":false,"internalType":"string","name":"pair","type":"string"},{"indexed":false,"internalType":"uint256","name":"amount","type":"uint256"}],"name":"Traded","type":"event"},{"anonymous":false,"inputs":[{"indexed":false,"internalType":"address","name":"account","type":"address"}],"name":"Unpaused","type":"event"},{"anonymous":false,"inputs":[{"indexed":true,"internalType":"address","name":"user","type":"address"},{"indexed":false,"internalType":"uint256","name":"amount","type":"uint256"}],"name":"Withdrawn","type":"event"},{"inputs":[],"name":"RISK_HIGH","outputs":[{"internalType":"uint256","name":"","type":"uint256"}],"stateMutability":"view","type":"function"},{"inputs":[],"name":"RISK_LOW","outputs":[{"internalType":"uint256","name":"","type":"uint256"}],"stateMutability":"view","type":"function"},{"inputs":[],"name":"RISK_MED","outputs":[{"internalType":"uint256","name":"","type":"uint256"}],"stateMutability":"view","type":"function"},{"inputs":[],"name":"SEL_BORROW","outputs":[{"internalType":"bytes4","name":"","type":"bytes4"}],"stateMutability":"view","type":"function"},{"inputs":[],"name":"SEL_DEPOSIT","outputs":[{"internalType":"bytes4","name":"","type":"bytes4"}],"stateMutability":"view","type":"function"},{"inputs":[],"name":"SEL_LIQUIDATE","outputs":[{"internalType":"bytes4","name":"","type":"bytes4"}],"stateMutability":"view","type":"function"},{"inputs":[],"name":"SEL_REPAY","outputs":[{"internalType":"bytes4","name":"","type":"bytes4"}],"stateMutability":"view","type":"function"},{"inputs":[],"name":"SEL_TRADE","outputs":[{"internalType":"bytes4","name":"","type":"bytes4"}],"stateMutability":"view","type":"function"},{"inputs":[],"name":"SEL_WITHDRAW","outputs":[{"internalType":"bytes4","name":"","type":"bytes4"}],"stateMutability":"view","type":"function"},{"inputs":[],"name":"analyzeRisk","outputs":[],"stateMutability":"nonpayable","type":"function"},{"inputs":[{"internalType":"uint256","name":"amount","type":"uint256"}],"name":"borrow","outputs":[],"stateMutability":"nonpayable","type":"function"},{"inputs":[],"name":"burstThreshold","outputs":[{"internalType":"uint256","name":"","type":"uint256"}],"stateMutability":"view","type":"function"},{"inputs":[],"name":"burstWindow","outputs":[{"internalType":"uint256","name":"","type":"uint256"}],"stateMutability":"view","type":"function"},{"inputs":[{"internalType":"bytes","name":"","type":"bytes"}],"name":"checkUpkeep","outputs":[{"internalType":"bool","name":"upkeepNeeded","type":"bool"},{"internalType":"bytes","name":"performData","type":"bytes"}],"stateMutability":"view","type":"function"},{"inputs":[],"name":"deposit","outputs":[],"stateMutability":"payable","type":"function"},{"inputs":[],"name":"emergencyPause","outputs":[],"stateMutability":"nonpayable","type":"function"},{"inputs":[{"internalType":"bytes4","name":"","type":"bytes4"}],"name":"functionBlocked","outputs":[{"internalType":"bool","name":"","type":"bool"}],"stateMutability":"view","type":"function"},{"inputs":[],"name":"lastAnalyzedAt","outputs":[{"internalType":"uint256","name":"","type":"uint256"}],"stateMutability":"view","type":"function"},{"inputs":[],"name":"lastPrice","outputs":[{"internalType":"uint256","name":"","type":"uint256"}],"stateMutability":"view","type":"function"},{"inputs":[{"internalType":"address","name":"target","type":"address"}],"name":"liquidate","outputs":[],"stateMutability":"nonpayable","type":"function"},{"inputs":[],"name":"owner","outputs":[{"internalType":"address","name":"","type":"address"}],"stateMutability":"view","type":"function"},{"inputs":[],"name":"paused","outputs":[{"internalType":"bool","name":"","type":"bool"}],"stateMutability":"view","type":"function"},{"inputs":[{"internalType":"bytes","name":"","type":"bytes"}],"name":"performUpkeep","outputs":[],"stateMutability":"nonpayable","type":"function"},{"inputs":[],"name":"priceFeed","outputs":[{"internalType":"contract AggregatorV3Interface","name":"","type":"address"}],"stateMutability":"view","type":"function"},{"inputs":[],"name":"priceThreshold","outputs":[{"internalType":"uint256","name":"","type":"uint256"}],"stateMutability":"view","type":"function"},{"inputs":[],"name":"renounceOwnership","outputs":[],"stateMutability":"nonpayable","type":"function"},{"inputs":[{"internalType":"uint256","name":"amount","type":"uint256"}],"name":"repay","outputs":[],"stateMutability":"payable","type":"function"},{"inputs":[],"name":"resetRisk","outputs":[],"stateMutability":"nonpayable","type":"function"},{"inputs":[],"name":"riskScore","outputs":[{"internalType":"uint256","name":"","type":"uint256"}],"stateMutability":"view","type":"function"},{"inputs":[{"internalType":"bytes4","name":"","type":"bytes4"}],"name":"selectorCallCount","outputs":[{"internalType":"uint256","name":"","type":"uint256"}],"stateMutability":"view","type":"function"},{"inputs":[{"internalType":"bytes4","name":"","type":"bytes4"}],"name":"selectorWindowStart","outputs":[{"internalType":"uint256","name":"","type":"uint256"}],"stateMutability":"view","type":"function"},{"inputs":[{"internalType":"bytes4","name":"selector","type":"bytes4"},{"internalType":"string","name":"name","type":"string"},{"internalType":"bool","name":"blocked","type":"bool"}],"name":"setBlockedManually","outputs":[],"stateMutability":"nonpayable","type":"function"},{"inputs":[{"internalType":"uint256","name":"_window","type":"uint256"},{"internalType":"uint256","name":"_threshold","type":"uint256"}],"name":"setBurstParams","outputs":[],"stateMutability":"nonpayable","type":"function"},{"inputs":[{"internalType":"address","name":"_feed","type":"address"}],"name":"setPriceFeed","outputs":[],"stateMutability":"nonpayable","type":"function"},{"inputs":[{"internalType":"uint256","name":"_threshold","type":"uint256"}],"name":"setPriceThreshold","outputs":[],"stateMutability":"nonpayable","type":"function"},{"inputs":[{"internalType":"uint256","name":"_score","type":"uint256"}],"name":"setRiskScoreManually","outputs":[],"stateMutability":"nonpayable","type":"function"},{"inputs":[{"internalType":"uint256","name":"_interval","type":"uint256"}],"name":"setUpkeepInterval","outputs":[],"stateMutability":"nonpayable","type":"function"},{"inputs":[{"internalType":"uint256","name":"_riskLevel","type":"uint256"}],"name":"simulateAttack","outputs":[],"stateMutability":"nonpayable","type":"function"},{"inputs":[],"name":"totalDeposits","outputs":[{"internalType":"uint256","name":"","type":"uint256"}],"stateMutability":"view","type":"function"},{"inputs":[{"internalType":"string","name":"pair","type":"string"},{"internalType":"uint256","name":"amount","type":"uint256"}],"name":"trade","outputs":[],"stateMutability":"nonpayable","type":"function"},{"inputs":[{"internalType":"address","name":"newOwner","type":"address"}],"name":"transferOwnership","outputs":[],"stateMutability":"nonpayable","type":"function"},{"inputs":[],"name":"unpause","outputs":[],"stateMutability":"nonpayable","type":"function"},{"inputs":[],"name":"upkeepInterval","outputs":[{"internalType":"uint256","name":"","type":"uint256"}],"stateMutability":"view","type":"function"},{"inputs":[{"internalType":"uint256","name":"amount","type":"uint256"}],"name":"withdraw","outputs":[],"stateMutability":"nonpayable","type":"function"},{"stateMutability":"payable","type":"receive"}],"evm":{"bytecode":{"linkReferences":{},"object":"6080604052603c600c556005600d553480156200001b57600080fd5b506040516200225a3803806200225a8339810160408190526200003e9162000174565b33806200006557604051631e4fbdf760e01b81526000600482015260240160405180910390fd5b620000708162000124565b506001805560028054610100600160a81b0319166101006001600160a01b038581168202929092179283905560048481556102586008554260055560408051633fabe5a360e21b81529051600095939093049093169263feaf968c928183019260a0928290030181865afa158015620000ed573d6000803e3d6000fd5b505050506040513d601f19601f82011682018060405250810190620001139190620001cd565b505050600655506200022292505050565b600080546001600160a01b038381166001600160a01b0319831681178455604051919092169283917f8be0079c531659141344cd1fd0a4f28419497f9722a3daafe3b4186f6b6457e09190a35050565b600080604083850312156200018857600080fd5b82516001600160a01b0381168114620001a057600080fd5b6020939093015192949293505050565b80516001600160501b0381168114620001c857600080fd5b919050565b600080600080600060a08688031215620001e657600080fd5b620001f186620001b0565b94506020860151935060408601519250606086015191506200021660808701620001b0565b90509295509295909350565b61202880620002326000396000f3fe60806040526004361061026a5760003560e01c806372e4c9f611610144578063bfd02991116100b6578063d0e30db01161007a578063d0e30db014610722578063e9fdfc9d1461072a578063ee3389361461074a578063f2fde38b1461077e578063f58f4f1b1461079e578063f77b2462146107be57600080fd5b8063bfd02991146106ab578063c5ebeaec146106c1578063c6775379146106e1578063cbf5d8ba146106f6578063cc2f60931461070c57600080fd5b80637d882097116101085780637d882097146106155780638926e6e11461062b5780638acb698a1461064d5780638c976766146106625780638da5cb5b146106785780639aa90ca71461069657600080fd5b806372e4c9f61461055f578063741bef1a1461057f57806377c4c336146105bc57806378a759f3146105de5780637cc0d5f1146105f357600080fd5b80633f4ba83a116101dd5780635c975abb116101a15780635c975abb14610486578063628803fc146104aa5780636e04ff0d146104cc5780637028b961146104fa578063715018a61461052a578063724e78da1461053f57600080fd5b80633f4ba83a146104065780634585e33b1461041b5780634fb52c701461043b57806351858e271461045b5780635a74373c1461047057600080fd5b80632e1a7d4d1161022f5780632e1a7d4d146103395780632f865568146103595780632fedf3cc14610379578063362320cd14610399578063371fd8e6146103c65780633c8e6a7c146103d957600080fd5b8062f2238d14610276578063053f14da1461028d5780631c1e4f1f146102b65780631d2e098f146102cc5780632173ae961461031957600080fd5b3661027157005b600080fd5b34801561028257600080fd5b5061028b6107de565b005b34801561029957600080fd5b506102a360065481565b6040519081526020015b60405180910390f35b3480156102c257600080fd5b506102a3600c5481565b3480156102d857600080fd5b506103007f371fd8e6e09a8b6c95bfd549c9c218fd7e12a2f89c6b169d5bfe3f1bf5a7d4e081565b6040516001600160e01b031990911681526020016102ad565b34801561032557600080fd5b5061028b610334366004611b06565b610a24565b34801561034557600080fd5b5061028b610354366004611b28565b610a37565b34801561036557600080fd5b5061028b610374366004611b41565b610bb2565b34801561038557600080fd5b5061028b610394366004611bd7565b610c42565b3480156103a557600080fd5b506102a36103b4366004611c42565b600b6020526000908152604090205481565b61028b6103d4366004611b28565b610d10565b3480156103e557600080fd5b506102a36103f4366004611c42565b600a6020526000908152604090205481565b34801561041257600080fd5b5061028b610da0565b34801561042757600080fd5b5061028b610436366004611c5d565b610db2565b34801561044757600080fd5b5061028b610456366004611b28565b610dbe565b34801561046757600080fd5b5061028b610dcb565b34801561047c57600080fd5b506102a360085481565b34801561049257600080fd5b5060025460ff165b60405190151581526020016102ad565b3480156104b657600080fd5b50610300600080516020611f5383398151915281565b3480156104d857600080fd5b506104ec6104e7366004611c5d565b610e11565b6040516102ad929190611ce5565b34801561050657600080fd5b5061049a610515366004611c42565b60096020526000908152604090205460ff1681565b34801561053657600080fd5b5061028b610f33565b34801561054b57600080fd5b5061028b61055a366004611b41565b610f45565b34801561056b57600080fd5b5061028b61057a366004611b28565b610f75565b34801561058b57600080fd5b506002546105a49061010090046001600160a01b031681565b6040516001600160a01b0390911681526020016102ad565b3480156105c857600080fd5b50610300600080516020611f9383398151915281565b3480156105ea57600080fd5b506102a3604681565b3480156105ff57600080fd5b50610300600080516020611fb383398151915281565b34801561062157600080fd5b506102a360075481565b34801561063757600080fd5b50610300600080516020611fd383398151915281565b34801561065957600080fd5b506102a3602881565b34801561066e57600080fd5b506102a360055481565b34801561068457600080fd5b506000546001600160a01b03166105a4565b3480156106a257600080fd5b506102a3605581565b3480156106b757600080fd5b506102a360035481565b3480156106cd57600080fd5b5061028b6106dc366004611b28565b610f82565b3480156106ed57600080fd5b5061028b61100b565b34801561070257600080fd5b506102a3600d5481565b34801561071857600080fd5b506102a360045481565b61028b611069565b34801561073657600080fd5b5061028b610745366004611b28565b61115d565b34801561075657600080fd5b506103007fd0e30db03f2e24c6531d8ae2f6c09d8e7a6ad7f7e87a81cb75dfda61c9d8328681565b34801561078a57600080fd5b5061028b610799366004611b41565b6111fb565b3480156107aa57600080fd5b5061028b6107b9366004611b28565b611236565b3480156107ca57600080fd5b5061028b6107d9366004611d08565b6112fd565b6000600260019054906101000a90046001600160a01b03166001600160a01b031663feaf968c6040518163ffffffff1660e01b815260040160a060405180830381865afa158015610833573d6000803e3d6000fd5b505050506040513d601f19601f820116820180604052508101906108579190611d6e565b50506006549193508392506000911590506108b6576000600654831161088a57826006546108859190611dd4565b610897565b6006546108979084611dd4565b6006549091506108a8826064611ded565b6108b29190611e04565b9150505b6000601482106108d2576108cb603c82611e26565b9050610906565b600a82106108e5576108cb602882611e26565b6004548210610906576108f9826003611ded565b6109039082611e26565b90505b60408051608081018252632e1a7d4d60e01b8152637bbd923160e11b602082015263317afabb60e21b918101919091526305f0caad60e31b606082015260005b60048110156109b2576000600a600084846004811061096757610967611e39565b60200201516001600160e01b0319166001600160e01b0319168152602001908152602001600020549050600d548111156109a9576109a6600a85611e26565b93505b50600101610946565b5060648211156109c157606491505b60038290556006849055426005556040518290600080516020611f7383398151915290610a0d90868152604060208201819052600490820152636175746f60e01b606082015260800190565b60405180910390a2610a1d61139e565b5050505050565b610a2c611839565b600c91909155600d55565b610a3f611866565b600080356001600160e01b03191681526009602052604090205460ff1615610a825760405162461bcd60e51b8152600401610a7990611e4f565b60405180910390fd5b610a976000356001600160e01b03191661188a565b610a9f61190d565b80471015610ae65760405162461bcd60e51b8152602060048201526014602482015273496e73756666696369656e742062616c616e636560601b6044820152606401610a79565b604051600090339083908381818185875af1925050503d8060008114610b28576040519150601f19603f3d011682016040523d82523d6000602084013e610b2d565b606091505b5050905080610b705760405162461bcd60e51b815260206004820152600f60248201526e151c985b9cd9995c8819985a5b1959608a1b6044820152606401610a79565b60405182815233907f7084f5476618d8e60b11ef0d7d3f06914655adb8793e28ff7f018d4c76d505d59060200160405180910390a250610baf60018055565b50565b610bba611866565b600080356001600160e01b03191681526009602052604090205460ff1615610bf45760405162461bcd60e51b8152600401610a7990611e4f565b610c096000356001600160e01b03191661188a565b6040516001600160a01b0382169033907facd74f5a0eb0d086de0eebe2d1e70d5742838c88cb2cf492fc201d39e056f7e090600090a350565b610c4a611839565b6001600160e01b031984166000908152600960205260409020805460ff19168215801591909117909155610cc557836001600160e01b0319167f194f0ee1653b224a0586ef9c1d332a4f1ad9480e56a601fbf638236b5ccc44988484600354604051610cb893929190611ecc565b60405180910390a2610d0a565b836001600160e01b0319167f0af297586f07a34cedf2036fc4724e45144fff521576fbb7d484f8b8a7f4c7378484604051610d01929190611ef0565b60405180910390a25b50505050565b610d18611866565b600080356001600160e01b03191681526009602052604090205460ff1615610d525760405162461bcd60e51b8152600401610a7990611e4f565b610d676000356001600160e01b03191661188a565b60405181815233907f0516911bcc3a0a7412a44601057c0a0a1ec628bde049a84284bc428866534488906020015b60405180910390a250565b610da8611839565b610db0611937565b565b610dba6107de565b5050565b610dc6611839565b600455565b610dd3611839565b610ddb611984565b6040513381527f7fc2170197efe2877ae0df3c17bce1285ce7a01eadade9718118a394495e7222906020015b60405180910390a1565b60006060600060085460055442610e289190611dd4565b101590506000600260019054906101000a90046001600160a01b03166001600160a01b031663feaf968c6040518163ffffffff1660e01b815260040160a060405180830381865afa158015610e81573d6000803e3d6000fd5b505050506040513d601f19601f82011682018060405250810190610ea59190611d6e565b5050600654919350839250600091159050610f045760006006548311610ed85782600654610ed39190611dd4565b610ee5565b600654610ee59084611dd4565b600654909150610ef6826064611ded565b610f009190611e04565b9150505b6004548110158480610f135750805b965060405180602001604052806000815250955050505050509250929050565b610f3b611839565b610db060006119c1565b610f4d611839565b600280546001600160a01b0390921661010002610100600160a81b0319909216919091179055565b610f7d611839565b600855565b610f8a611866565b600080356001600160e01b03191681526009602052604090205460ff1615610fc45760405162461bcd60e51b8152600401610a7990611e4f565b610fd96000356001600160e01b03191661188a565b60405181815233907fac59582e5396aca512fa873a2047e7f4c80f8f55d4a06cb34a78a0187f62719f90602001610d95565b611013611839565b600060035561102061139e565b6000600080516020611f73833981519152600060405161105f918152604060208201819052600590820152641c995cd95d60da1b606082015260800190565b60405180910390a2565b611071611866565b600080356001600160e01b03191681526009602052604090205460ff16156110ab5760405162461bcd60e51b8152600401610a7990611e4f565b6110c06000356001600160e01b03191661188a565b6110c861190d565b600034116111085760405162461bcd60e51b815260206004820152600d60248201526c09aeae6e840e6cadcc8408aa89609b1b6044820152606401610a79565b346007600082825461111a9190611e26565b909155505060405134815233907f2da466a7b24304f47e87fa2e1e5a81b9831ce54fec19055ce277ca2f39ba42c49060200160405180910390a2610db060018055565b611165611839565b60648111156111a55760405162461bcd60e51b815260206004820152600c60248201526b4f7574206f662072616e676560a01b6044820152606401610a79565b8060038190555080600080516020611f7383398151915260006040516111eb918152604060208201819052600690820152651b585b9d585b60d21b606082015260800190565b60405180910390a2610baf61139e565b611203611839565b6001600160a01b03811661122d57604051631e4fbdf760e01b815260006004820152602401610a79565b610baf816119c1565b61123e611839565b606481111561127e5760405162461bcd60e51b815260206004820152600c60248201526b4f7574206f662072616e676560a01b6044820152606401610a79565b6003819055604080518281523360208201527f5ab332efa897df505a17b98dd515e5a8826088884ae50b743e7d62bbb208d6f1910160405180910390a180600080516020611f7383398151915260006040516111eb918152604060208201819052600990820152681cda5b5d5b185d195960ba1b606082015260800190565b611305611866565b600080356001600160e01b03191681526009602052604090205460ff161561133f5760405162461bcd60e51b8152600401610a7990611e4f565b6113546000356001600160e01b03191661188a565b336001600160a01b03167f6d2f4aa28b2e9ece90beb8276e042238c1a048349f618f0319c8a2801c76058d84848460405161139193929190611ecc565b60405180910390a2505050565b605560035410611520576113e2600080516020611f9383398151915260405180604001604052806008815260200167776974686472617760c01b8152506001611a11565b611419600080516020611f5383398151915260405180604001604052806005815260200164747261646560d81b8152506001611a11565b611451600080516020611fb383398151915260405180604001604052806006815260200165626f72726f7760d01b8152506001611a11565b61148c600080516020611fd3833981519152604051806040016040528060098152602001686c697175696461746560b81b8152506001611a11565b6114d77fd0e30db03f2e24c6531d8ae2f6c09d8e7a6ad7f7e87a81cb75dfda61c9d832866040518060400160405280600781526020016619195c1bdcda5d60ca1b8152506000611a11565b610db07f371fd8e6e09a8b6c95bfd549c9c218fd7e12a2f89c6b169d5bfe3f1bf5a7d4e060405180604001604052806005815260200164726570617960d81b8152506000611a11565b60466003541061160e57611564600080516020611f9383398151915260405180604001604052806008815260200167776974686472617760c01b8152506001611a11565b61159b600080516020611f5383398151915260405180604001604052806005815260200164747261646560d81b8152506001611a11565b6115d3600080516020611fb383398151915260405180604001604052806006815260200165626f72726f7760d01b8152506001611a11565b61148c600080516020611fd3833981519152604051806040016040528060098152602001686c697175696461746560b81b8152506000611a11565b6028600354106116c15761164f600080516020611f5383398151915260405180604001604052806005815260200164747261646560d81b8152506001611a11565b611689600080516020611f9383398151915260405180604001604052806008815260200167776974686472617760c01b8152506000611a11565b6115d3600080516020611fb383398151915260405180604001604052806006815260200165626f72726f7760d01b8152506000611a11565b61170c7fd0e30db03f2e24c6531d8ae2f6c09d8e7a6ad7f7e87a81cb75dfda61c9d832866040518060400160405280600781526020016619195c1bdcda5d60ca1b8152506000611a11565b611746600080516020611f9383398151915260405180604001604052806008815260200167776974686472617760c01b8152506000611a11565b61177d600080516020611f5383398151915260405180604001604052806005815260200164747261646560d81b8152506000611a11565b6117b5600080516020611fb383398151915260405180604001604052806006815260200165626f72726f7760d01b8152506000611a11565b6117fe7f371fd8e6e09a8b6c95bfd549c9c218fd7e12a2f89c6b169d5bfe3f1bf5a7d4e060405180604001604052806005815260200164726570617960d81b8152506000611a11565b610db0600080516020611fd3833981519152604051806040016040528060098152602001686c697175696461746560b81b8152506000611a11565b6000546001600160a01b03163314610db05760405163118cdaa760e01b8152336004820152602401610a79565b60025460ff1615610db05760405163d93c066560e01b815260040160405180910390fd5b600c546001600160e01b031982166000908152600b60205260409020546118b19190611e26565b4211156118e0576001600160e01b031981166000908152600b60209081526040808320429055600a9091528120555b6001600160e01b031981166000908152600a6020526040812080549161190583611f04565b919050555050565b60026001540361193057604051633ee5aeb560e01b815260040160405180910390fd5b6002600155565b61193f611ae3565b6002805460ff191690557f5db9ee0a495bf2e6ff9c91a7834c1ba4fdd244a5e8aa4e537bd38aeae4b073aa335b6040516001600160a01b039091168152602001610e07565b61198c611866565b6002805460ff191660011790557f62e78cea01bee320cd4e420270b5ea74000d11b0c9f74754ebdbfc544b05a25861196c3390565b600080546001600160a01b038381166001600160a01b0319831681178455604051919092169283917f8be0079c531659141344cd1fd0a4f28419497f9722a3daafe3b4186f6b6457e09190a35050565b6001600160e01b0319831660009081526009602052604090205460ff16151581151514611ade576001600160e01b031983166000908152600960205260409020805460ff19168215801591909117909155611aa457826001600160e01b0319167f194f0ee1653b224a0586ef9c1d332a4f1ad9480e56a601fbf638236b5ccc449883600354604051611391929190611f1d565b826001600160e01b0319167f0af297586f07a34cedf2036fc4724e45144fff521576fbb7d484f8b8a7f4c737836040516113919190611f3f565b505050565b60025460ff16610db057604051638dfc202b60e01b815260040160405180910390fd5b60008060408385031215611b1957600080fd5b50508035926020909101359150565b600060208284031215611b3a57600080fd5b5035919050565b600060208284031215611b5357600080fd5b81356001600160a01b0381168114611b6a57600080fd5b9392505050565b80356001600160e01b031981168114611b8957600080fd5b919050565b60008083601f840112611ba057600080fd5b50813567ffffffffffffffff811115611bb857600080fd5b602083019150836020828501011115611bd057600080fd5b9250929050565b60008060008060608587031215611bed57600080fd5b611bf685611b71565b9350602085013567ffffffffffffffff811115611c1257600080fd5b611c1e87828801611b8e565b90945092505060408501358015158114611c3757600080fd5b939692955090935050565b600060208284031215611c5457600080fd5b611b6a82611b71565b60008060208385031215611c7057600080fd5b823567ffffffffffffffff811115611c8757600080fd5b611c9385828601611b8e565b90969095509350505050565b6000815180845260005b81811015611cc557602081850181015186830182015201611ca9565b506000602082860101526020601f19601f83011685010191505092915050565b8215158152604060208201526000611d006040830184611c9f565b949350505050565b600080600060408486031215611d1d57600080fd5b833567ffffffffffffffff811115611d3457600080fd5b611d4086828701611b8e565b909790965060209590950135949350505050565b805169ffffffffffffffffffff81168114611b8957600080fd5b600080600080600060a08688031215611d8657600080fd5b611d8f86611d54565b9450602086015193506040860151925060608601519150611db260808701611d54565b90509295509295909350565b634e487b7160e01b600052601160045260246000fd5b81810381811115611de757611de7611dbe565b92915050565b8082028115828204841417611de757611de7611dbe565b600082611e2157634e487b7160e01b600052601260045260246000fd5b500490565b80820180821115611de757611de7611dbe565b634e487b7160e01b600052603260045260246000fd5b60208082526034908201527f416567697353656e74696e656c3a2066756e6374696f6e20626c6f636b65642060408201527364756520746f20656c657661746564207269736b60601b606082015260800190565b81835281816020850137506000828201602090810191909152601f909101601f19169091010190565b604081526000611ee0604083018587611ea3565b9050826020830152949350505050565b602081526000611d00602083018486611ea3565b600060018201611f1657611f16611dbe565b5060010190565b604081526000611f306040830185611c9f565b90508260208301529392505050565b602081526000611b6a6020830184611c9f56fef77b2462a38f3aa44a4a41a100284634b280cc5fe066c11dd9e6eed07fb9c7a74438f6892d9289c3596fd9d541ccf5130fe79278a0a5d573f37d44f31b1e5e332e1a7d4d13322e7b96f9a57413e1525c250fb7a9021cf91d1540d5b69f16a49fc5ebeaec41fef397008d8c6bc797ba8b201b62033b6027b18b66dd1c9c8b13612f865568b51037c286edca2ad4375ac05fffd25f04247cc8c79e07d0b487ca06a2646970667358221220167bb39465db7604557a1208cd001cffe4d01d1bb713f7c63a8022abe0d11ce064736f6c63430008180033","opcodes":"PUSH1 0x80 PUSH1 0x40 MSTORE PUSH1 0x3C PUSH1 0xC SSTORE PUSH1 0x5 PUSH1 0xD SSTORE CALLVALUE DUP1 ISZERO PUSH3 0x1B JUMPI PUSH1 0x0 DUP1 REVERT JUMPDEST POP PUSH1 0x40 MLOAD PUSH3 0x225A CODESIZE SUB DUP1 PUSH3 0x225A DUP4 CODECOPY DUP2 ADD PUSH1 0x40 DUP2 SWAP1 MSTORE PUSH3 0x3E SWAP2 PUSH3 0x174 JUMP JUMPDEST CALLER DUP1 PUSH3 0x65 JUMPI PUSH1 0x40 MLOAD PUSH4 0x1E4FBDF7 PUSH1 0xE0 SHL DUP2 MSTORE PUSH1 0x0 PUSH1 0x4 DUP3 ADD MSTORE PUSH1 0x24 ADD PUSH1 0x40 MLOAD DUP1 SWAP2 SUB SWAP1 REVERT JUMPDEST PUSH3 0x70 DUP2 PUSH3 0x124 JUMP JUMPDEST POP PUSH1 0x1 DUP1 SSTORE PUSH1 0x2 DUP1 SLOAD PUSH2 0x100 PUSH1 0x1 PUSH1 0xA8 SHL SUB NOT AND PUSH2 0x100 PUSH1 0x1 PUSH1 0x1 PUSH1 0xA0 SHL SUB DUP6 DUP2 AND DUP3 MUL SWAP3 SWAP1 SWAP3 OR SWAP3 DUP4 SWAP1 SSTORE PUSH1 0x4 DUP5 DUP2 SSTORE PUSH2 0x258 PUSH1 0x8 SSTORE TIMESTAMP PUSH1 0x5 SSTORE PUSH1 0x40 DUP1 MLOAD PUSH4 0x3FABE5A3 PUSH1 0xE2 SHL DUP2 MSTORE SWAP1 MLOAD PUSH1 0x0 SWAP6 SWAP4 SWAP1 SWAP4 DIV SWAP1 SWAP4 AND SWAP3 PUSH4 0xFEAF968C SWAP3 DUP2 DUP4 ADD SWAP3 PUSH1 0xA0 SWAP3 DUP3 SWAP1 SUB ADD DUP2 DUP7 GAS STATICCALL ISZERO DUP1 ISZERO PUSH3 0xED JUMPI RETURNDATASIZE PUSH1 0x0 DUP1 RETURNDATACOPY RETURNDATASIZE PUSH1 0x0 REVERT JUMPDEST POP POP POP POP PUSH1 0x40 MLOAD RETURNDATASIZE PUSH1 0x1F NOT PUSH1 0x1F DUP3 ADD AND DUP3 ADD DUP1 PUSH1 0x40 MSTORE POP DUP2 ADD SWAP1 PUSH3 0x113 SWAP2 SWAP1 PUSH3 0x1CD JUMP JUMPDEST POP POP POP PUSH1 0x6 SSTORE POP PUSH3 0x222 SWAP3 POP POP POP JUMP JUMPDEST PUSH1 0x0 DUP1 SLOAD PUSH1 0x1 PUSH1 0x1 PUSH1 0xA0 SHL SUB DUP4 DUP2 AND PUSH1 0x1 PUSH1 0x1 PUSH1 0xA0 SHL SUB NOT DUP4 AND DUP2 OR DUP5 SSTORE PUSH1 0x40 MLOAD SWAP2 SWAP1 SWAP3 AND SWAP3 DUP4 SWAP2 PUSH32 0x8BE0079C531659141344CD1FD0A4F28419497F9722A3DAAFE3B4186F6B6457E0 SWAP2 SWAP1 LOG3 POP POP JUMP JUMPDEST PUSH1 0x0 DUP1 PUSH1 0x40 DUP4 DUP6 SUB SLT ISZERO PUSH3 0x188 JUMPI PUSH1 0x0 DUP1 REVERT JUMPDEST DUP3 MLOAD PUSH1 0x1 PUSH1 0x1 PUSH1 0xA0 SHL SUB DUP2 AND DUP2 EQ PUSH3 0x1A0 JUMPI PUSH1 0x0 DUP1 REVERT JUMPDEST PUSH1 0x20 SWAP4 SWAP1 SWAP4 ADD MLOAD SWAP3 SWAP5 SWAP3 SWAP4 POP POP POP JUMP JUMPDEST DUP1 MLOAD PUSH1 0x1 PUSH1 0x1 PUSH1 0x50 SHL SUB DUP2 AND DUP2 EQ PUSH3 0x1C8 JUMPI PUSH1 0x0 DUP1 REVERT JUMPDEST SWAP2 SWAP1 POP JUMP JUMPDEST PUSH1 0x0 DUP1 PUSH1 0x0 DUP1 PUSH1 0x0 PUSH1 0xA0 DUP7 DUP9 SUB SLT ISZERO PUSH3 0x1E6 JUMPI PUSH1 0x0 DUP1 REVERT JUMPDEST PUSH3 0x1F1 DUP7 PUSH3 0x1B0 JUMP JUMPDEST SWAP5 POP PUSH1 0x20 DUP7 ADD MLOAD SWAP4 POP PUSH1 0x40 DUP7 ADD MLOAD SWAP3 POP PUSH1 0x60 DUP7 ADD MLOAD SWAP2 POP PUSH3 0x216 PUSH1 0x80 DUP8 ADD PUSH3 0x1B0 JUMP JUMPDEST SWAP1 POP SWAP3 SWAP6 POP SWAP3 SWAP6 SWAP1 SWAP4 POP JUMP JUMPDEST PUSH2 0x2028 DUP1 PUSH3 0x232 PUSH1 0x0 CODECOPY PUSH1 0x0 RETURN INVALID PUSH1 0x80 PUSH1 0x40 MSTORE PUSH1 0x4 CALLDATASIZE LT PUSH2 0x26A JUMPI PUSH1 0x0 CALLDATALOAD PUSH1 0xE0 SHR DUP1 PUSH4 0x72E4C9F6 GT PUSH2 0x144 JUMPI DUP1 PUSH4 0xBFD02991 GT PUSH2 0xB6 JUMPI DUP1 PUSH4 0xD0E30DB0 GT PUSH2 0x7A JUMPI DUP1 PUSH4 0xD0E30DB0 EQ PUSH2 0x722 JUMPI DUP1 PUSH4 0xE9FDFC9D EQ PUSH2 0x72A JUMPI DUP1 PUSH4 0xEE338936 EQ PUSH2 0x74A JUMPI DUP1 PUSH4 0xF2FDE38B EQ PUSH2 0x77E JUMPI DUP1 PUSH4 0xF58F4F1B EQ PUSH2 0x79E JUMPI DUP1 PUSH4 0xF77B2462 EQ PUSH2 0x7BE JUMPI PUSH1 0x0 DUP1 REVERT JUMPDEST DUP1 PUSH4 0xBFD02991 EQ PUSH2 0x6AB JUMPI DUP1 PUSH4 0xC5EBEAEC EQ PUSH2 0x6C1 JUMPI DUP1 PUSH4 0xC6775379 EQ PUSH2 0x6E1 JUMPI DUP1 PUSH4 0xCBF5D8BA EQ PUSH2 0x6F6 JUMPI DUP1 PUSH4 0xCC2F6093 EQ PUSH2 0x70C JUMPI PUSH1 0x0 DUP1 REVERT JUMPDEST DUP1 PUSH4 0x7D882097 GT PUSH2 0x108 JUMPI DUP1 PUSH4 0x7D882097 EQ PUSH2 0x615 JUMPI DUP1 PUSH4 0x8926E6E1 EQ PUSH2 0x62B JUMPI DUP1 PUSH4 0x8ACB698A EQ PUSH2 0x64D JUMPI DUP1 PUSH4 0x8C976766 EQ PUSH2 0x662 JUMPI DUP1 PUSH4 0x8DA5CB5B EQ PUSH2 0x678 JUMPI DUP1 PUSH4 0x9AA90CA7 EQ PUSH2 0x696 JUMPI PUSH1 0x0 DUP1 REVERT JUMPDEST DUP1 PUSH4 0x72E4C9F6 EQ PUSH2 0x55F JUMPI DUP1 PUSH4 0x741BEF1A EQ PUSH2 0x57F JUMPI DUP1 PUSH4 0x77C4C336 EQ PUSH2 0x5BC JUMPI DUP1 PUSH4 0x78A759F3 EQ PUSH2 0x5DE JUMPI DUP1 PUSH4 0x7CC0D5F1 EQ PUSH2 0x5F3 JUMPI PUSH1 0x0 DUP1 REVERT JUMPDEST DUP1 PUSH4 0x3F4BA83A GT PUSH2 0x1DD JUMPI DUP1 PUSH4 0x5C975ABB GT PUSH2 0x1A1 JUMPI DUP1 PUSH4 0x5C975ABB EQ PUSH2 0x486 JUMPI DUP1 PUSH4 0x628803FC EQ PUSH2 0x4AA JUMPI DUP1 PUSH4 0x6E04FF0D EQ PUSH2 0x4CC JUMPI DUP1 PUSH4 0x7028B961 EQ PUSH2 0x4FA JUMPI DUP1 PUSH4 0x715018A6 EQ PUSH2 0x52A JUMPI DUP1 PUSH4 0x724E78DA EQ PUSH2 0x53F JUMPI PUSH1 0x0 DUP1 REVERT JUMPDEST DUP1 PUSH4 0x3F4BA83A EQ PUSH2 0x406 JUMPI DUP1 PUSH4 0x4585E33B EQ PUSH2 0x41B JUMPI DUP1 PUSH4 0x4FB52C70 EQ PUSH2 0x43B JUMPI DUP1 PUSH4 0x51858E27 EQ PUSH2 0x45B JUMPI DUP1 PUSH4 0x5A74373C EQ PUSH2 0x470 JUMPI PUSH1 0x0 DUP1 REVERT JUMPDEST DUP1 PUSH4 0x2E1A7D4D GT PUSH2 0x22F JUMPI DUP1 PUSH4 0x2E1A7D4D EQ PUSH2 0x339 JUMPI DUP1 PUSH4 0x2F865568 EQ PUSH2 0x359 JUMPI DUP1 PUSH4 0x2FEDF3CC EQ PUSH2 0x379 JUMPI DUP1 PUSH4 0x362320CD EQ PUSH2 0x399 JUMPI DUP1 PUSH4 0x371FD8E6 EQ PUSH2 0x3C6 JUMPI DUP1 PUSH4 0x3C8E6A7C EQ PUSH2 0x3D9 JUMPI PUSH1 0x0 DUP1 REVERT JUMPDEST DUP1 PUSH3 0xF2238D EQ PUSH2 0x276 JUMPI DUP1 PUSH4 0x53F14DA EQ PUSH2 0x28D JUMPI DUP1 PUSH4 0x1C1E4F1F EQ PUSH2 0x2B6 JUMPI DUP1 PUSH4 0x1D2E098F EQ PUSH2 0x2CC JUMPI DUP1 PUSH4 0x2173AE96 EQ PUSH2 0x319 JUMPI PUSH1 0x0 DUP1 REVERT JUMPDEST CALLDATASIZE PUSH2 0x271 JUMPI STOP JUMPDEST PUSH1 0x0 DUP1 REVERT JUMPDEST CALLVALUE DUP1 ISZERO PUSH2 0x282 JUMPI PUSH1 0x0 DUP1 REVERT JUMPDEST POP PUSH2 0x28B PUSH2 0x7DE JUMP JUMPDEST STOP JUMPDEST CALLVALUE DUP1 ISZERO PUSH2 0x299 JUMPI PUSH1 0x0 DUP1 REVERT JUMPDEST POP PUSH2 0x2A3 PUSH1 0x6 SLOAD DUP2 JUMP JUMPDEST PUSH1 0x40 MLOAD SWAP1 DUP2 MSTORE PUSH1 0x20 ADD JUMPDEST PUSH1 0x40 MLOAD DUP1 SWAP2 SUB SWAP1 RETURN JUMPDEST CALLVALUE DUP1 ISZERO PUSH2 0x2C2 JUMPI PUSH1 0x0 DUP1 REVERT JUMPDEST POP PUSH2 0x2A3 PUSH1 0xC SLOAD DUP2 JUMP JUMPDEST CALLVALUE DUP1 ISZERO PUSH2 0x2D8 JUMPI PUSH1 0x0 DUP1 REVERT JUMPDEST POP PUSH2 0x300 PUSH32 0x371FD8E6E09A8B6C95BFD549C9C218FD7E12A2F89C6B169D5BFE3F1BF5A7D4E0 DUP2 JUMP JUMPDEST PUSH1 0x40 MLOAD PUSH1 0x1 PUSH1 0x1 PUSH1 0xE0 SHL SUB NOT SWAP1 SWAP2 AND DUP2 MSTORE PUSH1 0x20 ADD PUSH2 0x2AD JUMP JUMPDEST CALLVALUE DUP1 ISZERO PUSH2 0x325 JUMPI PUSH1 0x0 DUP1 REVERT JUMPDEST POP PUSH2 0x28B PUSH2 0x334 CALLDATASIZE PUSH1 0x4 PUSH2 0x1B06 JUMP JUMPDEST PUSH2 0xA24 JUMP JUMPDEST CALLVALUE DUP1 ISZERO PUSH2 0x345 JUMPI PUSH1 0x0 DUP1 REVERT JUMPDEST POP PUSH2 0x28B PUSH2 0x354 CALLDATASIZE PUSH1 0x4 PUSH2 0x1B28 JUMP JUMPDEST PUSH2 0xA37 JUMP JUMPDEST CALLVALUE DUP1 ISZERO PUSH2 0x365 JUMPI PUSH1 0x0 DUP1 REVERT JUMPDEST POP PUSH2 0x28B PUSH2 0x374 CALLDATASIZE PUSH1 0x4 PUSH2 0x1B41 JUMP JUMPDEST PUSH2 0xBB2 JUMP JUMPDEST CALLVALUE DUP1 ISZERO PUSH2 0x385 JUMPI PUSH1 0x0 DUP1 REVERT JUMPDEST POP PUSH2 0x28B PUSH2 0x394 CALLDATASIZE PUSH1 0x4 PUSH2 0x1BD7 JUMP JUMPDEST PUSH2 0xC42 JUMP JUMPDEST CALLVALUE DUP1 ISZERO PUSH2 0x3A5 JUMPI PUSH1 0x0 DUP1 REVERT JUMPDEST POP PUSH2 0x2A3 PUSH2 0x3B4 CALLDATASIZE PUSH1 0x4 PUSH2 0x1C42 JUMP JUMPDEST PUSH1 0xB PUSH1 0x20 MSTORE PUSH1 0x0 SWAP1 DUP2 MSTORE PUSH1 0x40 SWAP1 KECCAK256 SLOAD DUP2 JUMP JUMPDEST PUSH2 0x28B PUSH2 0x3D4 CALLDATASIZE PUSH1 0x4 PUSH2 0x1B28 JUMP JUMPDEST PUSH2 0xD10 JUMP JUMPDEST CALLVALUE DUP1 ISZERO PUSH2 0x3E5 JUMPI PUSH1 0x0 DUP1 REVERT JUMPDEST POP PUSH2 0x2A3 PUSH2 0x3F4 CALLDATASIZE PUSH1 0x4 PUSH2 0x1C42 JUMP JUMPDEST PUSH1 0xA PUSH1 0x20 MSTORE PUSH1 0x0 SWAP1 DUP2 MSTORE PUSH1 0x40 SWAP1 KECCAK256 SLOAD DUP2 JUMP JUMPDEST CALLVALUE DUP1 ISZERO PUSH2 0x412 JUMPI PUSH1 0x0 DUP1 REVERT JUMPDEST POP PUSH2 0x28B PUSH2 0xDA0 JUMP JUMPDEST CALLVALUE DUP1 ISZERO PUSH2 0x427 JUMPI PUSH1 0x0 DUP1 REVERT JUMPDEST POP PUSH2 0x28B PUSH2 0x436 CALLDATASIZE PUSH1 0x4 PUSH2 0x1C5D JUMP JUMPDEST PUSH2 0xDB2 JUMP JUMPDEST CALLVALUE DUP1 ISZERO PUSH2 0x447 JUMPI PUSH1 0x0 DUP1 REVERT JUMPDEST POP PUSH2 0x28B PUSH2 0x456 CALLDATASIZE PUSH1 0x4 PUSH2 0x1B28 JUMP JUMPDEST PUSH2 0xDBE JUMP JUMPDEST CALLVALUE DUP1 ISZERO PUSH2 0x467 JUMPI PUSH1 0x0 DUP1 REVERT JUMPDEST POP PUSH2 0x28B PUSH2 0xDCB JUMP JUMPDEST CALLVALUE DUP1 ISZERO PUSH2 0x47C JUMPI PUSH1 0x0 DUP1 REVERT JUMPDEST POP PUSH2 0x2A3 PUSH1 0x8 SLOAD DUP2 JUMP JUMPDEST CALLVALUE DUP1 ISZERO PUSH2 0x492 JUMPI PUSH1 0x0 DUP1 REVERT JUMPDEST POP PUSH1 0x2 SLOAD PUSH1 0xFF AND JUMPDEST PUSH1 0x40 MLOAD SWAP1 ISZERO ISZERO DUP2 MSTORE PUSH1 0x20 ADD PUSH2 0x2AD JUMP JUMPDEST CALLVALUE DUP1 ISZERO PUSH2 0x4B6 JUMPI PUSH1 0x0 DUP1 REVERT JUMPDEST POP PUSH2 0x300 PUSH1 0x0 DUP1 MLOAD PUSH1 0x20 PUSH2 0x1F53 DUP4 CODECOPY DUP2 MLOAD SWAP2 MSTORE DUP2 JUMP JUMPDEST CALLVALUE DUP1 ISZERO PUSH2 0x4D8 JUMPI PUSH1 0x0 DUP1 REVERT JUMPDEST POP PUSH2 0x4EC PUSH2 0x4E7 CALLDATASIZE PUSH1 0x4 PUSH2 0x1C5D JUMP JUMPDEST PUSH2 0xE11 JUMP JUMPDEST PUSH1 0x40 MLOAD PUSH2 0x2AD SWAP3 SWAP2 SWAP1 PUSH2 0x1CE5 JUMP JUMPDEST CALLVALUE DUP1 ISZERO PUSH2 0x506 JUMPI PUSH1 0x0 DUP1 REVERT JUMPDEST POP PUSH2 0x49A PUSH2 0x515 CALLDATASIZE PUSH1 0x4 PUSH2 0x1C42 JUMP JUMPDEST PUSH1 0x9 PUSH1 0x20 MSTORE PUSH1 0x0 SWAP1 DUP2 MSTORE PUSH1 0x40 SWAP1 KECCAK256 SLOAD PUSH1 0xFF AND DUP2 JUMP JUMPDEST CALLVALUE DUP1 ISZERO PUSH2 0x536 JUMPI PUSH1 0x0 DUP1 REVERT JUMPDEST POP PUSH2 0x28B PUSH2 0xF33 JUMP JUMPDEST CALLVALUE DUP1 ISZERO PUSH2 0x54B JUMPI PUSH1 0x0 DUP1 REVERT JUMPDEST POP PUSH2 0x28B PUSH2 0x55A CALLDATASIZE PUSH1 0x4 PUSH2 0x1B41 JUMP JUMPDEST PUSH2 0xF45 JUMP JUMPDEST CALLVALUE DUP1 ISZERO PUSH2 0x56B JUMPI PUSH1 0x0 DUP1 REVERT JUMPDEST POP PUSH2 0x28B PUSH2 0x57A CALLDATASIZE PUSH1 0x4 PUSH2 0x1B28 JUMP JUMPDEST PUSH2 0xF75 JUMP JUMPDEST CALLVALUE DUP1 ISZERO PUSH2 0x58B JUMPI PUSH1 0x0 DUP1 REVERT JUMPDEST POP PUSH1 0x2 SLOAD PUSH2 0x5A4 SWAP1 PUSH2 0x100 SWAP1 DIV PUSH1 0x1 PUSH1 0x1 PUSH1 0xA0 SHL SUB AND DUP2 JUMP JUMPDEST PUSH1 0x40 MLOAD PUSH1 0x1 PUSH1 0x1 PUSH1 0xA0 SHL SUB SWAP1 SWAP2 AND DUP2 MSTORE PUSH1 0x20 ADD PUSH2 0x2AD JUMP JUMPDEST CALLVALUE DUP1 ISZERO PUSH2 0x5C8 JUMPI PUSH1 0x0 DUP1 REVERT JUMPDEST POP PUSH2 0x300 PUSH1 0x0 DUP1 MLOAD PUSH1 0x20 PUSH2 0x1F93 DUP4 CODECOPY DUP2 MLOAD SWAP2 MSTORE DUP2 JUMP JUMPDEST CALLVALUE DUP1 ISZERO PUSH2 0x5EA JUMPI PUSH1 0x0 DUP1 REVERT JUMPDEST POP PUSH2 0x2A3 PUSH1 0x46 DUP2 JUMP JUMPDEST CALLVALUE DUP1 ISZERO PUSH2 0x5FF JUMPI PUSH1 0x0 DUP1 REVERT JUMPDEST POP PUSH2 0x300 PUSH1 0x0 DUP1 MLOAD PUSH1 0x20 PUSH2 0x1FB3 DUP4 CODECOPY DUP2 MLOAD SWAP2 MSTORE DUP2 JUMP JUMPDEST CALLVALUE DUP1 ISZERO PUSH2 0x621 JUMPI PUSH1 0x0 DUP1 REVERT JUMPDEST POP PUSH2 0x2A3 PUSH1 0x7 SLOAD DUP2 JUMP JUMPDEST CALLVALUE DUP1 ISZERO PUSH2 0x637 JUMPI PUSH1 0x0 DUP1 REVERT JUMPDEST POP PUSH2 0x300 PUSH1 0x0 DUP1 MLOAD PUSH1 0x20 PUSH2 0x1FD3 DUP4 CODECOPY DUP2 MLOAD SWAP2 MSTORE DUP2 JUMP JUMPDEST CALLVALUE DUP1 ISZERO PUSH2 0x659 JUMPI PUSH1 0x0 DUP1 REVERT JUMPDEST POP PUSH2 0x2A3 PUSH1 0x28 DUP2 JUMP JUMPDEST CALLVALUE DUP1 ISZERO PUSH2 0x66E JUMPI PUSH1 0x0 DUP1 REVERT JUMPDEST POP PUSH2 0x2A3 PUSH1 0x5 SLOAD DUP2 JUMP JUMPDEST CALLVALUE DUP1 ISZERO PUSH2 0x684 JUMPI PUSH1 0x0 DUP1 REVERT JUMPDEST POP PUSH1 0x0 SLOAD PUSH1 0x1 PUSH1 0x1 PUSH1 0xA0 SHL SUB AND PUSH2 0x5A4 JUMP JUMPDEST CALLVALUE DUP1 ISZERO PUSH2 0x6A2 JUMPI PUSH1 0x0 DUP1 REVERT JUMPDEST POP PUSH2 0x2A3 PUSH1 0x55 DUP2 JUMP JUMPDEST CALLVALUE DUP1 ISZERO PUSH2 0x6B7 JUMPI PUSH1 0x0 DUP1 REVERT JUMPDEST POP PUSH2 0x2A3 PUSH1 0x3 SLOAD DUP2 JUMP JUMPDEST CALLVALUE DUP1 ISZERO PUSH2 0x6CD JUMPI PUSH1 0x0 DUP1 REVERT JUMPDEST POP PUSH2 0x28B PUSH2 0x6DC CALLDATASIZE PUSH1 0x4 PUSH2 0x1B28 JUMP JUMPDEST PUSH2 0xF82 JUMP JUMPDEST CALLVALUE DUP1 ISZERO PUSH2 0x6ED JUMPI PUSH1 0x0 DUP1 REVERT JUMPDEST POP PUSH2 0x28B PUSH2 0x100B JUMP JUMPDEST CALLVALUE DUP1 ISZERO PUSH2 0x702 JUMPI PUSH1 0x0 DUP1 REVERT JUMPDEST POP PUSH2 0x2A3 PUSH1 0xD SLOAD DUP2 JUMP JUMPDEST CALLVALUE DUP1 ISZERO PUSH2 0x718 JUMPI PUSH1 0x0 DUP1 REVERT JUMPDEST POP PUSH2 0x2A3 PUSH1 0x4 SLOAD DUP2 JUMP JUMPDEST PUSH2 0x28B PUSH2 0x1069 JUMP JUMPDEST CALLVALUE DUP1 ISZERO PUSH2 0x736 JUMPI PUSH1 0x0 DUP1 REVERT JUMPDEST POP PUSH2 0x28B PUSH2 0x745 CALLDATASIZE PUSH1 0x4 PUSH2 0x1B28 JUMP JUMPDEST PUSH2 0x115D JUMP JUMPDEST CALLVALUE DUP1 ISZERO PUSH2 0x756 JUMPI PUSH1 0x0 DUP1 REVERT JUMPDEST POP PUSH2 0x300 PUSH32 0xD0E30DB03F2E24C6531D8AE2F6C09D8E7A6AD7F7E87A81CB75DFDA61C9D83286 DUP2 JUMP JUMPDEST CALLVALUE DUP1 ISZERO PUSH2 0x78A JUMPI PUSH1 0x0 DUP1 REVERT JUMPDEST POP PUSH2 0x28B PUSH2 0x799 CALLDATASIZE PUSH1 0x4 PUSH2 0x1B41 JUMP JUMPDEST PUSH2 0x11FB JUMP JUMPDEST CALLVALUE DUP1 ISZERO PUSH2 0x7AA JUMPI PUSH1 0x0 DUP1 REVERT JUMPDEST POP PUSH2 0x28B PUSH2 0x7B9 CALLDATASIZE PUSH1 0x4 PUSH2 0x1B28 JUMP JUMPDEST PUSH2 0x1236 JUMP JUMPDEST CALLVALUE DUP1 ISZERO PUSH2 0x7CA JUMPI PUSH1 0x0 DUP1 REVERT JUMPDEST POP PUSH2 0x28B PUSH2 0x7D9 CALLDATASIZE PUSH1 0x4 PUSH2 0x1D08 JUMP JUMPDEST PUSH2 0x12FD JUMP JUMPDEST PUSH1 0x0 PUSH1 0x2 PUSH1 0x1 SWAP1 SLOAD SWAP1 PUSH2 0x100 EXP SWAP1 DIV PUSH1 0x1 PUSH1 0x1 PUSH1 0xA0 SHL SUB AND PUSH1 0x1 PUSH1 0x1 PUSH1 0xA0 SHL SUB AND PUSH4 0xFEAF968C PUSH1 0x40 MLOAD DUP2 PUSH4 0xFFFFFFFF AND PUSH1 0xE0 SHL DUP2 MSTORE PUSH1 0x4 ADD PUSH1 0xA0 PUSH1 0x40 MLOAD DUP1 DUP4 SUB DUP2 DUP7 GAS STATICCALL ISZERO DUP1 ISZERO PUSH2 0x833 JUMPI RETURNDATASIZE PUSH1 0x0 DUP1 RETURNDATACOPY RETURNDATASIZE PUSH1 0x0 REVERT JUMPDEST POP POP POP POP PUSH1 0x40 MLOAD RETURNDATASIZE PUSH1 0x1F NOT PUSH1 0x1F DUP3 ADD AND DUP3 ADD DUP1 PUSH1 0x40 MSTORE POP DUP2 ADD SWAP1 PUSH2 0x857 SWAP2 SWAP1 PUSH2 0x1D6E JUMP JUMPDEST POP POP PUSH1 0x6 SLOAD SWAP2 SWAP4 POP DUP4 SWAP3 POP PUSH1 0x0 SWAP2 ISZERO SWAP1 POP PUSH2 0x8B6 JUMPI PUSH1 0x0 PUSH1 0x6 SLOAD DUP4 GT PUSH2 0x88A JUMPI DUP3 PUSH1 0x6 SLOAD PUSH2 0x885 SWAP2 SWAP1 PUSH2 0x1DD4 JUMP JUMPDEST PUSH2 0x897 JUMP JUMPDEST PUSH1 0x6 SLOAD PUSH2 0x897 SWAP1 DUP5 PUSH2 0x1DD4 JUMP JUMPDEST PUSH1 0x6 SLOAD SWAP1 SWAP2 POP PUSH2 0x8A8 DUP3 PUSH1 0x64 PUSH2 0x1DED JUMP JUMPDEST PUSH2 0x8B2 SWAP2 SWAP1 PUSH2 0x1E04 JUMP JUMPDEST SWAP2 POP POP JUMPDEST PUSH1 0x0 PUSH1 0x14 DUP3 LT PUSH2 0x8D2 JUMPI PUSH2 0x8CB PUSH1 0x3C DUP3 PUSH2 0x1E26 JUMP JUMPDEST SWAP1 POP PUSH2 0x906 JUMP JUMPDEST PUSH1 0xA DUP3 LT PUSH2 0x8E5 JUMPI PUSH2 0x8CB PUSH1 0x28 DUP3 PUSH2 0x1E26 JUMP JUMPDEST PUSH1 0x4 SLOAD DUP3 LT PUSH2 0x906 JUMPI PUSH2 0x8F9 DUP3 PUSH1 0x3 PUSH2 0x1DED JUMP JUMPDEST PUSH2 0x903 SWAP1 DUP3 PUSH2 0x1E26 JUMP JUMPDEST SWAP1 POP JUMPDEST PUSH1 0x40 DUP1 MLOAD PUSH1 0x80 DUP2 ADD DUP3 MSTORE PUSH4 0x2E1A7D4D PUSH1 0xE0 SHL DUP2 MSTORE PUSH4 0x7BBD9231 PUSH1 0xE1 SHL PUSH1 0x20 DUP3 ADD MSTORE PUSH4 0x317AFABB PUSH1 0xE2 SHL SWAP2 DUP2 ADD SWAP2 SWAP1 SWAP2 MSTORE PUSH4 0x5F0CAAD PUSH1 0xE3 SHL PUSH1 0x60 DUP3 ADD MSTORE PUSH1 0x0 JUMPDEST PUSH1 0x4 DUP2 LT ISZERO PUSH2 0x9B2 JUMPI PUSH1 0x0 PUSH1 0xA PUSH1 0x0 DUP5 DUP5 PUSH1 0x4 DUP2 LT PUSH2 0x967 JUMPI PUSH2 0x967 PUSH2 0x1E39 JUMP JUMPDEST PUSH1 0x20 MUL ADD MLOAD PUSH1 0x1 PUSH1 0x1 PUSH1 0xE0 SHL SUB NOT AND PUSH1 0x1 PUSH1 0x1 PUSH1 0xE0 SHL SUB NOT AND DUP2 MSTORE PUSH1 0x20 ADD SWAP1 DUP2 MSTORE PUSH1 0x20 ADD PUSH1 0x0 KECCAK256 SLOAD SWAP1 POP PUSH1 0xD SLOAD DUP2 GT ISZERO PUSH2 0x9A9 JUMPI PUSH2 0x9A6 PUSH1 0xA DUP6 PUSH2 0x1E26 JUMP JUMPDEST SWAP4 POP JUMPDEST POP PUSH1 0x1 ADD PUSH2 0x946 JUMP JUMPDEST POP PUSH1 0x64 DUP3 GT ISZERO PUSH2 0x9C1 JUMPI PUSH1 0x64 SWAP2 POP JUMPDEST PUSH1 0x3 DUP3 SWAP1 SSTORE PUSH1 0x6 DUP5 SWAP1 SSTORE TIMESTAMP PUSH1 0x5 SSTORE PUSH1 0x40 MLOAD DUP3 SWAP1 PUSH1 0x0 DUP1 MLOAD PUSH1 0x20 PUSH2 0x1F73 DUP4 CODECOPY DUP2 MLOAD SWAP2 MSTORE SWAP1 PUSH2 0xA0D SWAP1 DUP7 DUP2 MSTORE PUSH1 0x40 PUSH1 0x20 DUP3 ADD DUP2 SWAP1 MSTORE PUSH1 0x4 SWAP1 DUP3 ADD MSTORE PUSH4 0x6175746F PUSH1 0xE0 SHL PUSH1 0x60 DUP3 ADD MSTORE PUSH1 0x80 ADD SWAP1 JUMP JUMPDEST PUSH1 0x40 MLOAD DUP1 SWAP2 SUB SWAP1 LOG2 PUSH2 0xA1D PUSH2 0x139E JUMP JUMPDEST POP POP POP POP POP JUMP JUMPDEST PUSH2 0xA2C PUSH2 0x1839 JUMP JUMPDEST PUSH1 0xC SWAP2 SWAP1 SWAP2 SSTORE PUSH1 0xD SSTORE JUMP JUMPDEST PUSH2 0xA3F PUSH2 0x1866 JUMP JUMPDEST PUSH1 0x0 DUP1 CALLDATALOAD PUSH1 0x1 PUSH1 0x1 PUSH1 0xE0 SHL SUB NOT AND DUP2 MSTORE PUSH1 0x9 PUSH1 0x20 MSTORE PUSH1 0x40 SWAP1 KECCAK256 SLOAD PUSH1 0xFF AND ISZERO PUSH2 0xA82 JUMPI PUSH1 0x40 MLOAD PUSH3 0x461BCD PUSH1 0xE5 SHL DUP2 MSTORE PUSH1 0x4 ADD PUSH2 0xA79 SWAP1 PUSH2 0x1E4F JUMP JUMPDEST PUSH1 0x40 MLOAD DUP1 SWAP2 SUB SWAP1 REVERT JUMPDEST PUSH2 0xA97 PUSH1 0x0 CALLDATALOAD PUSH1 0x1 PUSH1 0x1 PUSH1 0xE0 SHL SUB NOT AND PUSH2 0x188A JUMP JUMPDEST PUSH2 0xA9F PUSH2 0x190D JUMP JUMPDEST DUP1 SELFBALANCE LT ISZERO PUSH2 0xAE6 JUMPI PUSH1 0x40 MLOAD PUSH3 0x461BCD PUSH1 0xE5 SHL DUP2 MSTORE PUSH1 0x20 PUSH1 0x4 DUP3 ADD MSTORE PUSH1 0x14 PUSH1 0x24 DUP3 ADD MSTORE PUSH20 0x496E73756666696369656E742062616C616E6365 PUSH1 0x60 SHL PUSH1 0x44 DUP3 ADD MSTORE PUSH1 0x64 ADD PUSH2 0xA79 JUMP JUMPDEST PUSH1 0x40 MLOAD PUSH1 0x0 SWAP1 CALLER SWAP1 DUP4 SWAP1 DUP4 DUP2 DUP2 DUP2 DUP6 DUP8 GAS CALL SWAP3 POP POP POP RETURNDATASIZE DUP1 PUSH1 0x0 DUP2 EQ PUSH2 0xB28 JUMPI PUSH1 0x40 MLOAD SWAP2 POP PUSH1 0x1F NOT PUSH1 0x3F RETURNDATASIZE ADD AND DUP3 ADD PUSH1 0x40 MSTORE RETURNDATASIZE DUP3 MSTORE RETURNDATASIZE PUSH1 0x0 PUSH1 0x20 DUP5 ADD RETURNDATACOPY PUSH2 0xB2D JUMP JUMPDEST PUSH1 0x60 SWAP2 POP JUMPDEST POP POP SWAP1 POP DUP1 PUSH2 0xB70 JUMPI PUSH1 0x40 MLOAD PUSH3 0x461BCD PUSH1 0xE5 SHL DUP2 MSTORE PUSH1 0x20 PUSH1 0x4 DUP3 ADD MSTORE PUSH1 0xF PUSH1 0x24 DUP3 ADD MSTORE PUSH15 0x151C985B9CD9995C8819985A5B1959 PUSH1 0x8A SHL PUSH1 0x44 DUP3 ADD MSTORE PUSH1 0x64 ADD PUSH2 0xA79 JUMP JUMPDEST PUSH1 0x40 MLOAD DUP3 DUP2 MSTORE CALLER SWAP1 PUSH32 0x7084F5476618D8E60B11EF0D7D3F06914655ADB8793E28FF7F018D4C76D505D5 SWAP1 PUSH1 0x20 ADD PUSH1 0x40 MLOAD DUP1 SWAP2 SUB SWAP1 LOG2 POP PUSH2 0xBAF PUSH1 0x1 DUP1 SSTORE JUMP JUMPDEST POP JUMP JUMPDEST PUSH2 0xBBA PUSH2 0x1866 JUMP JUMPDEST PUSH1 0x0 DUP1 CALLDATALOAD PUSH1 0x1 PUSH1 0x1 PUSH1 0xE0 SHL SUB NOT AND DUP2 MSTORE PUSH1 0x9 PUSH1 0x20 MSTORE PUSH1 0x40 SWAP1 KECCAK256 SLOAD PUSH1 0xFF AND ISZERO PUSH2 0xBF4 JUMPI PUSH1 0x40 MLOAD PUSH3 0x461BCD PUSH1 0xE5 SHL DUP2 MSTORE PUSH1 0x4 ADD PUSH2 0xA79 SWAP1 PUSH2 0x1E4F JUMP JUMPDEST PUSH2 0xC09 PUSH1 0x0 CALLDATALOAD PUSH1 0x1 PUSH1 0x1 PUSH1 0xE0 SHL SUB NOT AND PUSH2 0x188A JUMP JUMPDEST PUSH1 0x40 MLOAD PUSH1 0x1 PUSH1 0x1 PUSH1 0xA0 SHL SUB DUP3 AND SWAP1 CALLER SWAP1 PUSH32 0xACD74F5A0EB0D086DE0EEBE2D1E70D5742838C88CB2CF492FC201D39E056F7E0 SWAP1 PUSH1 0x0 SWAP1 LOG3 POP JUMP JUMPDEST PUSH2 0xC4A PUSH2 0x1839 JUMP JUMPDEST PUSH1 0x1 PUSH1 0x1 PUSH1 0xE0 SHL SUB NOT DUP5 AND PUSH1 0x0 SWAP1 DUP2 MSTORE PUSH1 0x9 PUSH1 0x20 MSTORE PUSH1 0x40 SWAP1 KECCAK256 DUP1 SLOAD PUSH1 0xFF NOT AND DUP3 ISZERO DUP1 ISZERO SWAP2 SWAP1 SWAP2 OR SWAP1 SWAP2 SSTORE PUSH2 0xCC5 JUMPI DUP4 PUSH1 0x1 PUSH1 0x1 PUSH1 0xE0 SHL SUB NOT AND PUSH32 0x194F0EE1653B224A0586EF9C1D332A4F1AD9480E56A601FBF638236B5CCC4498 DUP5 DUP5 PUSH1 0x3 SLOAD PUSH1 0x40 MLOAD PUSH2 0xCB8 SWAP4 SWAP3 SWAP2 SWAP1 PUSH2 0x1ECC JUMP JUMPDEST PUSH1 0x40 MLOAD DUP1 SWAP2 SUB SWAP1 LOG2 PUSH2 0xD0A JUMP JUMPDEST DUP4 PUSH1 0x1 PUSH1 0x1 PUSH1 0xE0 SHL SUB NOT AND PUSH32 0xAF297586F07A34CEDF2036FC4724E45144FFF521576FBB7D484F8B8A7F4C737 DUP5 DUP5 PUSH1 0x40 MLOAD PUSH2 0xD01 SWAP3 SWAP2 SWAP1 PUSH2 0x1EF0 JUMP JUMPDEST PUSH1 0x40 MLOAD DUP1 SWAP2 SUB SWAP1 LOG2 JUMPDEST POP POP POP POP JUMP JUMPDEST PUSH2 0xD18 PUSH2 0x1866 JUMP JUMPDEST PUSH1 0x0 DUP1 CALLDATALOAD PUSH1 0x1 PUSH1 0x1 PUSH1 0xE0 SHL SUB NOT AND DUP2 MSTORE PUSH1 0x9 PUSH1 0x20 MSTORE PUSH1 0x40 SWAP1 KECCAK256 SLOAD PUSH1 0xFF AND ISZERO PUSH2 0xD52 JUMPI PUSH1 0x40 MLOAD PUSH3 0x461BCD PUSH1 0xE5 SHL DUP2 MSTORE PUSH1 0x4 ADD PUSH2 0xA79 SWAP1 PUSH2 0x1E4F JUMP JUMPDEST PUSH2 0xD67 PUSH1 0x0 CALLDATALOAD PUSH1 0x1 PUSH1 0x1 PUSH1 0xE0 SHL SUB NOT AND PUSH2 0x188A JUMP JUMPDEST PUSH1 0x40 MLOAD DUP2 DUP2 MSTORE CALLER SWAP1 PUSH32 0x516911BCC3A0A7412A44601057C0A0A1EC628BDE049A84284BC428866534488 SWAP1 PUSH1 0x20 ADD JUMPDEST PUSH1 0x40 MLOAD DUP1 SWAP2 SUB SWAP1 LOG2 POP JUMP JUMPDEST PUSH2 0xDA8 PUSH2 0x1839 JUMP JUMPDEST PUSH2 0xDB0 PUSH2 0x1937 JUMP JUMPDEST JUMP JUMPDEST PUSH2 0xDBA PUSH2 0x7DE JUMP JUMPDEST POP POP JUMP JUMPDEST PUSH2 0xDC6 PUSH2 0x1839 JUMP JUMPDEST PUSH1 0x4 SSTORE JUMP JUMPDEST PUSH2 0xDD3 PUSH2 0x1839 JUMP JUMPDEST PUSH2 0xDDB PUSH2 0x1984 JUMP JUMPDEST PUSH1 0x40 MLOAD CALLER DUP2 MSTORE PUSH32 0x7FC2170197EFE2877AE0DF3C17BCE1285CE7A01EADADE9718118A394495E7222 SWAP1 PUSH1 0x20 ADD JUMPDEST PUSH1 0x40 MLOAD DUP1 SWAP2 SUB SWAP1 LOG1 JUMP JUMPDEST PUSH1 0x0 PUSH1 0x60 PUSH1 0x0 PUSH1 0x8 SLOAD PUSH1 0x5 SLOAD TIMESTAMP PUSH2 0xE28 SWAP2 SWAP1 PUSH2 0x1DD4 JUMP JUMPDEST LT ISZERO SWAP1 POP PUSH1 0x0 PUSH1 0x2 PUSH1 0x1 SWAP1 SLOAD SWAP1 PUSH2 0x100 EXP SWAP1 DIV PUSH1 0x1 PUSH1 0x1 PUSH1 0xA0 SHL SUB AND PUSH1 0x1 PUSH1 0x1 PUSH1 0xA0 SHL SUB AND PUSH4 0xFEAF968C PUSH1 0x40 MLOAD DUP2 PUSH4 0xFFFFFFFF AND PUSH1 0xE0 SHL DUP2 MSTORE PUSH1 0x4 ADD PUSH1 0xA0 PUSH1 0x40 MLOAD DUP1 DUP4 SUB DUP2 DUP7 GAS STATICCALL ISZERO DUP1 ISZERO PUSH2 0xE81 JUMPI RETURNDATASIZE PUSH1 0x0 DUP1 RETURNDATACOPY RETURNDATASIZE PUSH1 0x0 REVERT JUMPDEST POP POP POP POP PUSH1 0x40 MLOAD RETURNDATASIZE PUSH1 0x1F NOT PUSH1 0x1F DUP3 ADD AND DUP3 ADD DUP1 PUSH1 0x40 MSTORE POP DUP2 ADD SWAP1 PUSH2 0xEA5 SWAP2 SWAP1 PUSH2 0x1D6E JUMP JUMPDEST POP POP PUSH1 0x6 SLOAD SWAP2 SWAP4 POP DUP4 SWAP3 POP PUSH1 0x0 SWAP2 ISZERO SWAP1 POP PUSH2 0xF04 JUMPI PUSH1 0x0 PUSH1 0x6 SLOAD DUP4 GT PUSH2 0xED8 JUMPI DUP3 PUSH1 0x6 SLOAD PUSH2 0xED3 SWAP2 SWAP1 PUSH2 0x1DD4 JUMP JUMPDEST PUSH2 0xEE5 JUMP JUMPDEST PUSH1 0x6 SLOAD PUSH2 0xEE5 SWAP1 DUP5 PUSH2 0x1DD4 JUMP JUMPDEST PUSH1 0x6 SLOAD SWAP1 SWAP2 POP PUSH2 0xEF6 DUP3 PUSH1 0x64 PUSH2 0x1DED JUMP JUMPDEST PUSH2 0xF00 SWAP2 SWAP1 PUSH2 0x1E04 JUMP JUMPDEST SWAP2 POP POP JUMPDEST PUSH1 0x4 SLOAD DUP2 LT ISZERO DUP5 DUP1 PUSH2 0xF13 JUMPI POP DUP1 JUMPDEST SWAP7 POP PUSH1 0x40 MLOAD DUP1 PUSH1 0x20 ADD PUSH1 0x40 MSTORE DUP1 PUSH1 0x0 DUP2 MSTORE POP SWAP6 POP POP POP POP POP POP SWAP3 POP SWAP3 SWAP1 POP JUMP JUMPDEST PUSH2 0xF3B PUSH2 0x1839 JUMP JUMPDEST PUSH2 0xDB0 PUSH1 0x0 PUSH2 0x19C1 JUMP JUMPDEST PUSH2 0xF4D PUSH2 0x1839 JUMP JUMPDEST PUSH1 0x2 DUP1 SLOAD PUSH1 0x1 PUSH1 0x1 PUSH1 0xA0 SHL SUB SWAP1 SWAP3 AND PUSH2 0x100 MUL PUSH2 0x100 PUSH1 0x1 PUSH1 0xA8 SHL SUB NOT SWAP1 SWAP3 AND SWAP2 SWAP1 SWAP2 OR SWAP1 SSTORE JUMP JUMPDEST PUSH2 0xF7D PUSH2 0x1839 JUMP JUMPDEST PUSH1 0x8 SSTORE JUMP JUMPDEST PUSH2 0xF8A PUSH2 0x1866 JUMP JUMPDEST PUSH1 0x0 DUP1 CALLDATALOAD PUSH1 0x1 PUSH1 0x1 PUSH1 0xE0 SHL SUB NOT AND DUP2 MSTORE PUSH1 0x9 PUSH1 0x20 MSTORE PUSH1 0x40 SWAP1 KECCAK256 SLOAD PUSH1 0xFF AND ISZERO PUSH2 0xFC4 JUMPI PUSH1 0x40 MLOAD PUSH3 0x461BCD PUSH1 0xE5 SHL DUP2 MSTORE PUSH1 0x4 ADD PUSH2 0xA79 SWAP1 PUSH2 0x1E4F JUMP JUMPDEST PUSH2 0xFD9 PUSH1 0x0 CALLDATALOAD PUSH1 0x1 PUSH1 0x1 PUSH1 0xE0 SHL SUB NOT AND PUSH2 0x188A JUMP JUMPDEST PUSH1 0x40 MLOAD DUP2 DUP2 MSTORE CALLER SWAP1 PUSH32 0xAC59582E5396ACA512FA873A2047E7F4C80F8F55D4A06CB34A78A0187F62719F SWAP1 PUSH1 0x20 ADD PUSH2 0xD95 JUMP JUMPDEST PUSH2 0x1013 PUSH2 0x1839 JUMP JUMPDEST PUSH1 0x0 PUSH1 0x3 SSTORE PUSH2 0x1020 PUSH2 0x139E JUMP JUMPDEST PUSH1 0x0 PUSH1 0x0 DUP1 MLOAD PUSH1 0x20 PUSH2 0x1F73 DUP4 CODECOPY DUP2 MLOAD SWAP2 MSTORE PUSH1 0x0 PUSH1 0x40 MLOAD PUSH2 0x105F SWAP2 DUP2 MSTORE PUSH1 0x40 PUSH1 0x20 DUP3 ADD DUP2 SWAP1 MSTORE PUSH1 0x5 SWAP1 DUP3 ADD MSTORE PUSH5 0x1C995CD95D PUSH1 0xDA SHL PUSH1 0x60 DUP3 ADD MSTORE PUSH1 0x80 ADD SWAP1 JUMP JUMPDEST PUSH1 0x40 MLOAD DUP1 SWAP2 SUB SWAP1 LOG2 JUMP JUMPDEST PUSH2 0x1071 PUSH2 0x1866 JUMP JUMPDEST PUSH1 0x0 DUP1 CALLDATALOAD PUSH1 0x1 PUSH1 0x1 PUSH1 0xE0 SHL SUB NOT AND DUP2 MSTORE PUSH1 0x9 PUSH1 0x20 MSTORE PUSH1 0x40 SWAP1 KECCAK256 SLOAD PUSH1 0xFF AND ISZERO PUSH2 0x10AB JUMPI PUSH1 0x40 MLOAD PUSH3 0x461BCD PUSH1 0xE5 SHL DUP2 MSTORE PUSH1 0x4 ADD PUSH2 0xA79 SWAP1 PUSH2 0x1E4F JUMP JUMPDEST PUSH2 0x10C0 PUSH1 0x0 CALLDATALOAD PUSH1 0x1 PUSH1 0x1 PUSH1 0xE0 SHL SUB NOT AND PUSH2 0x188A JUMP JUMPDEST PUSH2 0x10C8 PUSH2 0x190D JUMP JUMPDEST PUSH1 0x0 CALLVALUE GT PUSH2 0x1108 JUMPI PUSH1 0x40 MLOAD PUSH3 0x461BCD PUSH1 0xE5 SHL DUP2 MSTORE PUSH1 0x20 PUSH1 0x4 DUP3 ADD MSTORE PUSH1 0xD PUSH1 0x24 DUP3 ADD MSTORE PUSH13 0x9AEAE6E840E6CADCC8408AA89 PUSH1 0x9B SHL PUSH1 0x44 DUP3 ADD MSTORE PUSH1 0x64 ADD PUSH2 0xA79 JUMP JUMPDEST CALLVALUE PUSH1 0x7 PUSH1 0x0 DUP3 DUP3 SLOAD PUSH2 0x111A SWAP2 SWAP1 PUSH2 0x1E26 JUMP JUMPDEST SWAP1 SWAP2 SSTORE POP POP PUSH1 0x40 MLOAD CALLVALUE DUP2 MSTORE CALLER SWAP1 PUSH32 0x2DA466A7B24304F47E87FA2E1E5A81B9831CE54FEC19055CE277CA2F39BA42C4 SWAP1 PUSH1 0x20 ADD PUSH1 0x40 MLOAD DUP1 SWAP2 SUB SWAP1 LOG2 PUSH2 0xDB0 PUSH1 0x1 DUP1 SSTORE JUMP JUMPDEST PUSH2 0x1165 PUSH2 0x1839 JUMP JUMPDEST PUSH1 0x64 DUP2 GT ISZERO PUSH2 0x11A5 JUMPI PUSH1 0x40 MLOAD PUSH3 0x461BCD PUSH1 0xE5 SHL DUP2 MSTORE PUSH1 0x20 PUSH1 0x4 DUP3 ADD MSTORE PUSH1 0xC PUSH1 0x24 DUP3 ADD MSTORE PUSH12 0x4F7574206F662072616E6765 PUSH1 0xA0 SHL PUSH1 0x44 DUP3 ADD MSTORE PUSH1 0x64 ADD PUSH2 0xA79 JUMP JUMPDEST DUP1 PUSH1 0x3 DUP2 SWAP1 SSTORE POP DUP1 PUSH1 0x0 DUP1 MLOAD PUSH1 0x20 PUSH2 0x1F73 DUP4 CODECOPY DUP2 MLOAD SWAP2 MSTORE PUSH1 0x0 PUSH1 0x40 MLOAD PUSH2 0x11EB SWAP2 DUP2 MSTORE PUSH1 0x40 PUSH1 0x20 DUP3 ADD DUP2 SWAP1 MSTORE PUSH1 0x6 SWAP1 DUP3 ADD MSTORE PUSH6 0x1B585B9D585B PUSH1 0xD2 SHL PUSH1 0x60 DUP3 ADD MSTORE PUSH1 0x80 ADD SWAP1 JUMP JUMPDEST PUSH1 0x40 MLOAD DUP1 SWAP2 SUB SWAP1 LOG2 PUSH2 0xBAF PUSH2 0x139E JUMP JUMPDEST PUSH2 0x1203 PUSH2 0x1839 JUMP JUMPDEST PUSH1 0x1 PUSH1 0x1 PUSH1 0xA0 SHL SUB DUP2 AND PUSH2 0x122D JUMPI PUSH1 0x40 MLOAD PUSH4 0x1E4FBDF7 PUSH1 0xE0 SHL DUP2 MSTORE PUSH1 0x0 PUSH1 0x4 DUP3 ADD MSTORE PUSH1 0x24 ADD PUSH2 0xA79 JUMP JUMPDEST PUSH2 0xBAF DUP2 PUSH2 0x19C1 JUMP JUMPDEST PUSH2 0x123E PUSH2 0x1839 JUMP JUMPDEST PUSH1 0x64 DUP2 GT ISZERO PUSH2 0x127E JUMPI PUSH1 0x40 MLOAD PUSH3 0x461BCD PUSH1 0xE5 SHL DUP2 MSTORE PUSH1 0x20 PUSH1 0x4 DUP3 ADD MSTORE PUSH1 0xC PUSH1 0x24 DUP3 ADD MSTORE PUSH12 0x4F7574206F662072616E6765 PUSH1 0xA0 SHL PUSH1 0x44 DUP3 ADD MSTORE PUSH1 0x64 ADD PUSH2 0xA79 JUMP JUMPDEST PUSH1 0x3 DUP2 SWAP1 SSTORE PUSH1 0x40 DUP1 MLOAD DUP3 DUP2 MSTORE CALLER PUSH1 0x20 DUP3 ADD MSTORE PUSH32 0x5AB332EFA897DF505A17B98DD515E5A8826088884AE50B743E7D62BBB208D6F1 SWAP2 ADD PUSH1 0x40 MLOAD DUP1 SWAP2 SUB SWAP1 LOG1 DUP1 PUSH1 0x0 DUP1 MLOAD PUSH1 0x20 PUSH2 0x1F73 DUP4 CODECOPY DUP2 MLOAD SWAP2 MSTORE PUSH1 0x0 PUSH1 0x40 MLOAD PUSH2 0x11EB SWAP2 DUP2 MSTORE PUSH1 0x40 PUSH1 0x20 DUP3 ADD DUP2 SWAP1 MSTORE PUSH1 0x9 SWAP1 DUP3 ADD MSTORE PUSH9 0x1CDA5B5D5B185D1959 PUSH1 0xBA SHL PUSH1 0x60 DUP3 ADD MSTORE PUSH1 0x80 ADD SWAP1 JUMP JUMPDEST PUSH2 0x1305 PUSH2 0x1866 JUMP JUMPDEST PUSH1 0x0 DUP1 CALLDATALOAD PUSH1 0x1 PUSH1 0x1 PUSH1 0xE0 SHL SUB NOT AND DUP2 MSTORE PUSH1 0x9 PUSH1 0x20 MSTORE PUSH1 0x40 SWAP1 KECCAK256 SLOAD PUSH1 0xFF AND ISZERO PUSH2 0x133F JUMPI PUSH1 0x40 MLOAD PUSH3 0x461BCD PUSH1 0xE5 SHL DUP2 MSTORE PUSH1 0x4 ADD PUSH2 0xA79 SWAP1 PUSH2 0x1E4F JUMP JUMPDEST PUSH2 0x1354 PUSH1 0x0 CALLDATALOAD PUSH1 0x1 PUSH1 0x1 PUSH1 0xE0 SHL SUB NOT AND PUSH2 0x188A JUMP JUMPDEST CALLER PUSH1 0x1 PUSH1 0x1 PUSH1 0xA0 SHL SUB AND PUSH32 0x6D2F4AA28B2E9ECE90BEB8276E042238C1A048349F618F0319C8A2801C76058D DUP5 DUP5 DUP5 PUSH1 0x40 MLOAD PUSH2 0x1391 SWAP4 SWAP3 SWAP2 SWAP1 PUSH2 0x1ECC JUMP JUMPDEST PUSH1 0x40 MLOAD DUP1 SWAP2 SUB SWAP1 LOG2 POP POP POP JUMP JUMPDEST PUSH1 0x55 PUSH1 0x3 SLOAD LT PUSH2 0x1520 JUMPI PUSH2 0x13E2 PUSH1 0x0 DUP1 MLOAD PUSH1 0x20 PUSH2 0x1F93 DUP4 CODECOPY DUP2 MLOAD SWAP2 MSTORE PUSH1 0x40 MLOAD DUP1 PUSH1 0x40 ADD PUSH1 0x40 MSTORE DUP1 PUSH1 0x8 DUP2 MSTORE PUSH1 0x20 ADD PUSH8 0x7769746864726177 PUSH1 0xC0 SHL DUP2 MSTORE POP PUSH1 0x1 PUSH2 0x1A11 JUMP JUMPDEST PUSH2 0x1419 PUSH1 0x0 DUP1 MLOAD PUSH1 0x20 PUSH2 0x1F53 DUP4 CODECOPY DUP2 MLOAD SWAP2 MSTORE PUSH1 0x40 MLOAD DUP1 PUSH1 0x40 ADD PUSH1 0x40 MSTORE DUP1 PUSH1 0x5 DUP2 MSTORE PUSH1 0x20 ADD PUSH5 0x7472616465 PUSH1 0xD8 SHL DUP2 MSTORE POP PUSH1 0x1 PUSH2 0x1A11 JUMP JUMPDEST PUSH2 0x1451 PUSH1 0x0 DUP1 MLOAD PUSH1 0x20 PUSH2 0x1FB3 DUP4 CODECOPY DUP2 MLOAD SWAP2 MSTORE PUSH1 0x40 MLOAD DUP1 PUSH1 0x40 ADD PUSH1 0x40 MSTORE DUP1 PUSH1 0x6 DUP2 MSTORE PUSH1 0x20 ADD PUSH6 0x626F72726F77 PUSH1 0xD0 SHL DUP2 MSTORE POP PUSH1 0x1 PUSH2 0x1A11 JUMP JUMPDEST PUSH2 0x148C PUSH1 0x0 DUP1 MLOAD PUSH1 0x20 PUSH2 0x1FD3 DUP4 CODECOPY DUP2 MLOAD SWAP2 MSTORE PUSH1 0x40 MLOAD DUP1 PUSH1 0x40 ADD PUSH1 0x40 MSTORE DUP1 PUSH1 0x9 DUP2 MSTORE PUSH1 0x20 ADD PUSH9 0x6C6971756964617465 PUSH1 0xB8 SHL DUP2 MSTORE POP PUSH1 0x1 PUSH2 0x1A11 JUMP JUMPDEST PUSH2 0x14D7 PUSH32 0xD0E30DB03F2E24C6531D8AE2F6C09D8E7A6AD7F7E87A81CB75DFDA61C9D83286 PUSH1 0x40 MLOAD DUP1 PUSH1 0x40 ADD PUSH1 0x40 MSTORE DUP1 PUSH1 0x7 DUP2 MSTORE PUSH1 0x20 ADD PUSH7 0x19195C1BDCDA5D PUSH1 0xCA SHL DUP2 MSTORE POP PUSH1 0x0 PUSH2 0x1A11 JUMP JUMPDEST PUSH2 0xDB0 PUSH32 0x371FD8E6E09A8B6C95BFD549C9C218FD7E12A2F89C6B169D5BFE3F1BF5A7D4E0 PUSH1 0x40 MLOAD DUP1 PUSH1 0x40 ADD PUSH1 0x40 MSTORE DUP1 PUSH1 0x5 DUP2 MSTORE PUSH1 0x20 ADD PUSH5 0x7265706179 PUSH1 0xD8 SHL DUP2 MSTORE POP PUSH1 0x0 PUSH2 0x1A11 JUMP JUMPDEST PUSH1 0x46 PUSH1 0x3 SLOAD LT PUSH2 0x160E JUMPI PUSH2 0x1564 PUSH1 0x0 DUP1 MLOAD PUSH1 0x20 PUSH2 0x1F93 DUP4 CODECOPY DUP2 MLOAD SWAP2 MSTORE PUSH1 0x40 MLOAD DUP1 PUSH1 0x40 ADD PUSH1 0x40 MSTORE DUP1 PUSH1 0x8 DUP2 MSTORE PUSH1 0x20 ADD PUSH8 0x7769746864726177 PUSH1 0xC0 SHL DUP2 MSTORE POP PUSH1 0x1 PUSH2 0x1A11 JUMP JUMPDEST PUSH2 0x159B PUSH1 0x0 DUP1 MLOAD PUSH1 0x20 PUSH2 0x1F53 DUP4 CODECOPY DUP2 MLOAD SWAP2 MSTORE PUSH1 0x40 MLOAD DUP1 PUSH1 0x40 ADD PUSH1 0x40 MSTORE DUP1 PUSH1 0x5 DUP2 MSTORE PUSH1 0x20 ADD PUSH5 0x7472616465 PUSH1 0xD8 SHL DUP2 MSTORE POP PUSH1 0x1 PUSH2 0x1A11 JUMP JUMPDEST PUSH2 0x15D3 PUSH1 0x0 DUP1 MLOAD PUSH1 0x20 PUSH2 0x1FB3 DUP4 CODECOPY DUP2 MLOAD SWAP2 MSTORE PUSH1 0x40 MLOAD DUP1 PUSH1 0x40 ADD PUSH1 0x40 MSTORE DUP1 PUSH1 0x6 DUP2 MSTORE PUSH1 0x20 ADD PUSH6 0x626F72726F77 PUSH1 0xD0 SHL DUP2 MSTORE POP PUSH1 0x1 PUSH2 0x1A11 JUMP JUMPDEST PUSH2 0x148C PUSH1 0x0 DUP1 MLOAD PUSH1 0x20 PUSH2 0x1FD3 DUP4 CODECOPY DUP2 MLOAD SWAP2 MSTORE PUSH1 0x40 MLOAD DUP1 PUSH1 0x40 ADD PUSH1 0x40 MSTORE DUP1 PUSH1 0x9 DUP2 MSTORE PUSH1 0x20 ADD PUSH9 0x6C6971756964617465 PUSH1 0xB8 SHL DUP2 MSTORE POP PUSH1 0x0 PUSH2 0x1A11 JUMP JUMPDEST PUSH1 0x28 PUSH1 0x3 SLOAD LT PUSH2 0x16C1 JUMPI PUSH2 0x164F PUSH1 0x0 DUP1 MLOAD PUSH1 0x20 PUSH2 0x1F53 DUP4 CODECOPY DUP2 MLOAD SWAP2 MSTORE PUSH1 0x40 MLOAD DUP1 PUSH1 0x40 ADD PUSH1 0x40 MSTORE DUP1 PUSH1 0x5 DUP2 MSTORE PUSH1 0x20 ADD PUSH5 0x7472616465 PUSH1 0xD8 SHL DUP2 MSTORE POP PUSH1 0x1 PUSH2 0x1A11 JUMP JUMPDEST PUSH2 0x1689 PUSH1 0x0 DUP1 MLOAD PUSH1 0x20 PUSH2 0x1F93 DUP4 CODECOPY DUP2 MLOAD SWAP2 MSTORE PUSH1 0x40 MLOAD DUP1 PUSH1 0x40 ADD PUSH1 0x40 MSTORE DUP1 PUSH1 0x8 DUP2 MSTORE PUSH1 0x20 ADD PUSH8 0x7769746864726177 PUSH1 0xC0 SHL DUP2 MSTORE POP PUSH1 0x0 PUSH2 0x1A11 JUMP JUMPDEST PUSH2 0x15D3 PUSH1 0x0 DUP1 MLOAD PUSH1 0x20 PUSH2 0x1FB3 DUP4 CODECOPY DUP2 MLOAD SWAP2 MSTORE PUSH1 0x40 MLOAD DUP1 PUSH1 0x40 ADD PUSH1 0x40 MSTORE DUP1 PUSH1 0x6 DUP2 MSTORE PUSH1 0x20 ADD PUSH6 0x626F72726F77 PUSH1 0xD0 SHL DUP2 MSTORE POP PUSH1 0x0 PUSH2 0x1A11 JUMP JUMPDEST PUSH2 0x170C PUSH32 0xD0E30DB03F2E24C6531D8AE2F6C09D8E7A6AD7F7E87A81CB75DFDA61C9D83286 PUSH1 0x40 MLOAD DUP1 PUSH1 0x40 ADD PUSH1 0x40 MSTORE DUP1 PUSH1 0x7 DUP2 MSTORE PUSH1 0x20 ADD PUSH7 0x19195C1BDCDA5D PUSH1 0xCA SHL DUP2 MSTORE POP PUSH1 0x0 PUSH2 0x1A11 JUMP JUMPDEST PUSH2 0x1746 PUSH1 0x0 DUP1 MLOAD PUSH1 0x20 PUSH2 0x1F93 DUP4 CODECOPY DUP2 MLOAD SWAP2 MSTORE PUSH1 0x40 MLOAD DUP1 PUSH1 0x40 ADD PUSH1 0x40 MSTORE DUP1 PUSH1 0x8 DUP2 MSTORE PUSH1 0x20 ADD PUSH8 0x7769746864726177 PUSH1 0xC0 SHL DUP2 MSTORE POP PUSH1 0x0 PUSH2 0x1A11 JUMP JUMPDEST PUSH2 0x177D PUSH1 0x0 DUP1 MLOAD PUSH1 0x20 PUSH2 0x1F53 DUP4 CODECOPY DUP2 MLOAD SWAP2 MSTORE PUSH1 0x40 MLOAD DUP1 PUSH1 0x40 ADD PUSH1 0x40 MSTORE DUP1 PUSH1 0x5 DUP2 MSTORE PUSH1 0x20 ADD PUSH5 0x7472616465 PUSH1 0xD8 SHL DUP2 MSTORE POP PUSH1 0x0 PUSH2 0x1A11 JUMP JUMPDEST PUSH2 0x17B5 PUSH1 0x0 DUP1 MLOAD PUSH1 0x20 PUSH2 0x1FB3 DUP4 CODECOPY DUP2 MLOAD SWAP2 MSTORE PUSH1 0x40 MLOAD DUP1 PUSH1 0x40 ADD PUSH1 0x40 MSTORE DUP1 PUSH1 0x6 DUP2 MSTORE PUSH1 0x20 ADD PUSH6 0x626F72726F77 PUSH1 0xD0 SHL DUP2 MSTORE POP PUSH1 0x0 PUSH2 0x1A11 JUMP JUMPDEST PUSH2 0x17FE PUSH32 0x371FD8E6E09A8B6C95BFD549C9C218FD7E12A2F89C6B169D5BFE3F1BF5A7D4E0 PUSH1 0x40 MLOAD DUP1 PUSH1 0x40 ADD PUSH1 0x40 MSTORE DUP1 PUSH1 0x5 DUP2 MSTORE PUSH1 0x20 ADD PUSH5 0x7265706179 PUSH1 0xD8 SHL DUP2 MSTORE POP PUSH1 0x0 PUSH2 0x1A11 JUMP JUMPDEST PUSH2 0xDB0 PUSH1 0x0 DUP1 MLOAD PUSH1 0x20 PUSH2 0x1FD3 DUP4 CODECOPY DUP2 MLOAD SWAP2 MSTORE PUSH1 0x40 MLOAD DUP1 PUSH1 0x40 ADD PUSH1 0x40 MSTORE DUP1 PUSH1 0x9 DUP2 MSTORE PUSH1 0x20 ADD PUSH9 0x6C6971756964617465 PUSH1 0xB8 SHL DUP2 MSTORE POP PUSH1 0x0 PUSH2 0x1A11 JUMP JUMPDEST PUSH1 0x0 SLOAD PUSH1 0x1 PUSH1 0x1 PUSH1 0xA0 SHL SUB AND CALLER EQ PUSH2 0xDB0 JUMPI PUSH1 0x40 MLOAD PUSH4 0x118CDAA7 PUSH1 0xE0 SHL DUP2 MSTORE CALLER PUSH1 0x4 DUP3 ADD MSTORE PUSH1 0x24 ADD PUSH2 0xA79 JUMP JUMPDEST PUSH1 0x2 SLOAD PUSH1 0xFF AND ISZERO PUSH2 0xDB0 JUMPI PUSH1 0x40 MLOAD PUSH4 0xD93C0665 PUSH1 0xE0 SHL DUP2 MSTORE PUSH1 0x4 ADD PUSH1 0x40 MLOAD DUP1 SWAP2 SUB SWAP1 REVERT JUMPDEST PUSH1 0xC SLOAD PUSH1 0x1 PUSH1 0x1 PUSH1 0xE0 SHL SUB NOT DUP3 AND PUSH1 0x0 SWAP1 DUP2 MSTORE PUSH1 0xB PUSH1 0x20 MSTORE PUSH1 0x40 SWAP1 KECCAK256 SLOAD PUSH2 0x18B1 SWAP2 SWAP1 PUSH2 0x1E26 JUMP JUMPDEST TIMESTAMP GT ISZERO PUSH2 0x18E0 JUMPI PUSH1 0x1 PUSH1 0x1 PUSH1 0xE0 SHL SUB NOT DUP2 AND PUSH1 0x0 SWAP1 DUP2 MSTORE PUSH1 0xB PUSH1 0x20 SWAP1 DUP2 MSTORE PUSH1 0x40 DUP1 DUP4 KECCAK256 TIMESTAMP SWAP1 SSTORE PUSH1 0xA SWAP1 SWAP2 MSTORE DUP2 KECCAK256 SSTORE JUMPDEST PUSH1 0x1 PUSH1 0x1 PUSH1 0xE0 SHL SUB NOT DUP2 AND PUSH1 0x0 SWAP1 DUP2 MSTORE PUSH1 0xA PUSH1 0x20 MSTORE PUSH1 0x40 DUP2 KECCAK256 DUP1 SLOAD SWAP2 PUSH2 0x1905 DUP4 PUSH2 0x1F04 JUMP JUMPDEST SWAP2 SWAP1 POP SSTORE POP POP JUMP JUMPDEST PUSH1 0x2 PUSH1 0x1 SLOAD SUB PUSH2 0x1930 JUMPI PUSH1 0x40 MLOAD PUSH4 0x3EE5AEB5 PUSH1 0xE0 SHL DUP2 MSTORE PUSH1 0x4 ADD PUSH1 0x40 MLOAD DUP1 SWAP2 SUB SWAP1 REVERT JUMPDEST PUSH1 0x2 PUSH1 0x1 SSTORE JUMP JUMPDEST PUSH2 0x193F PUSH2 0x1AE3 JUMP JUMPDEST PUSH1 0x2 DUP1 SLOAD PUSH1 0xFF NOT AND SWAP1 SSTORE PUSH32 0x5DB9EE0A495BF2E6FF9C91A7834C1BA4FDD244A5E8AA4E537BD38AEAE4B073AA CALLER JUMPDEST PUSH1 0x40 MLOAD PUSH1 0x1 PUSH1 0x1 PUSH1 0xA0 SHL SUB SWAP1 SWAP2 AND DUP2 MSTORE PUSH1 0x20 ADD PUSH2 0xE07 JUMP JUMPDEST PUSH2 0x198C PUSH2 0x1866 JUMP JUMPDEST PUSH1 0x2 DUP1 SLOAD PUSH1 0xFF NOT AND PUSH1 0x1 OR SWAP1 SSTORE PUSH32 0x62E78CEA01BEE320CD4E420270B5EA74000D11B0C9F74754EBDBFC544B05A258 PUSH2 0x196C CALLER SWAP1 JUMP JUMPDEST PUSH1 0x0 DUP1 SLOAD PUSH1 0x1 PUSH1 0x1 PUSH1 0xA0 SHL SUB DUP4 DUP2 AND PUSH1 0x1 PUSH1 0x1 PUSH1 0xA0 SHL SUB NOT DUP4 AND DUP2 OR DUP5 SSTORE PUSH1 0x40 MLOAD SWAP2 SWAP1 SWAP3 AND SWAP3 DUP4 SWAP2 PUSH32 0x8BE0079C531659141344CD1FD0A4F28419497F9722A3DAAFE3B4186F6B6457E0 SWAP2 SWAP1 LOG3 POP POP JUMP JUMPDEST PUSH1 0x1 PUSH1 0x1 PUSH1 0xE0 SHL SUB NOT DUP4 AND PUSH1 0x0 SWAP1 DUP2 MSTORE PUSH1 0x9 PUSH1 0x20 MSTORE PUSH1 0x40 SWAP1 KECCAK256 SLOAD PUSH1 0xFF AND ISZERO ISZERO DUP2 ISZERO ISZERO EQ PUSH2 0x1ADE JUMPI PUSH1 0x1 PUSH1 0x1 PUSH1 0xE0 SHL SUB NOT DUP4 AND PUSH1 0x0 SWAP1 DUP2 MSTORE PUSH1 0x9 PUSH1 0x20 MSTORE PUSH1 0x40 SWAP1 KECCAK256 DUP1 SLOAD PUSH1 0xFF NOT AND DUP3 ISZERO DUP1 ISZERO SWAP2 SWAP1 SWAP2 OR SWAP1 SWAP2 SSTORE PUSH2 0x1AA4 JUMPI DUP3 PUSH1 0x1 PUSH1 0x1 PUSH1 0xE0 SHL SUB NOT AND PUSH32 0x194F0EE1653B224A0586EF9C1D332A4F1AD9480E56A601FBF638236B5CCC4498 DUP4 PUSH1 0x3 SLOAD PUSH1 0x40 MLOAD PUSH2 0x1391 SWAP3 SWAP2 SWAP1 PUSH2 0x1F1D JUMP JUMPDEST DUP3 PUSH1 0x1 PUSH1 0x1 PUSH1 0xE0 SHL SUB NOT AND PUSH32 0xAF297586F07A34CEDF2036FC4724E45144FFF521576FBB7D484F8B8A7F4C737 DUP4 PUSH1 0x40 MLOAD PUSH2 0x1391 SWAP2 SWAP1 PUSH2 0x1F3F JUMP JUMPDEST POP POP POP JUMP JUMPDEST PUSH1 0x2 SLOAD PUSH1 0xFF AND PUSH2 0xDB0 JUMPI PUSH1 0x40 MLOAD PUSH4 0x8DFC202B PUSH1 0xE0 SHL DUP2 MSTORE PUSH1 0x4 ADD PUSH1 0x40 MLOAD DUP1 SWAP2 SUB SWAP1 REVERT JUMPDEST PUSH1 0x0 DUP1 PUSH1 0x40 DUP4 DUP6 SUB SLT ISZERO PUSH2 0x1B19 JUMPI PUSH1 0x0 DUP1 REVERT JUMPDEST POP POP DUP1 CALLDATALOAD SWAP3 PUSH1 0x20 SWAP1 SWAP2 ADD CALLDATALOAD SWAP2 POP JUMP JUMPDEST PUSH1 0x0 PUSH1 0x20 DUP3 DUP5 SUB SLT ISZERO PUSH2 0x1B3A JUMPI PUSH1 0x0 DUP1 REVERT JUMPDEST POP CALLDATALOAD SWAP2 SWAP1 POP JUMP JUMPDEST PUSH1 0x0 PUSH1 0x20 DUP3 DUP5 SUB SLT ISZERO PUSH2 0x1B53 JUMPI PUSH1 0x0 DUP1 REVERT JUMPDEST DUP2 CALLDATALOAD PUSH1 0x1 PUSH1 0x1 PUSH1 0xA0 SHL SUB DUP2 AND DUP2 EQ PUSH2 0x1B6A JUMPI PUSH1 0x0 DUP1 REVERT JUMPDEST SWAP4 SWAP3 POP POP POP JUMP JUMPDEST DUP1 CALLDATALOAD PUSH1 0x1 PUSH1 0x1 PUSH1 0xE0 SHL SUB NOT DUP2 AND DUP2 EQ PUSH2 0x1B89 JUMPI PUSH1 0x0 DUP1 REVERT JUMPDEST SWAP2 SWAP1 POP JUMP JUMPDEST PUSH1 0x0 DUP1 DUP4 PUSH1 0x1F DUP5 ADD SLT PUSH2 0x1BA0 JUMPI PUSH1 0x0 DUP1 REVERT JUMPDEST POP DUP2 CALLDATALOAD PUSH8 0xFFFFFFFFFFFFFFFF DUP2 GT ISZERO PUSH2 0x1BB8 JUMPI PUSH1 0x0 DUP1 REVERT JUMPDEST PUSH1 0x20 DUP4 ADD SWAP2 POP DUP4 PUSH1 0x20 DUP3 DUP6 ADD ADD GT ISZERO PUSH2 0x1BD0 JUMPI PUSH1 0x0 DUP1 REVERT JUMPDEST SWAP3 POP SWAP3 SWAP1 POP JUMP JUMPDEST PUSH1 0x0 DUP1 PUSH1 0x0 DUP1 PUSH1 0x60 DUP6 DUP8 SUB SLT ISZERO PUSH2 0x1BED JUMPI PUSH1 0x0 DUP1 REVERT JUMPDEST PUSH2 0x1BF6 DUP6 PUSH2 0x1B71 JUMP JUMPDEST SWAP4 POP PUSH1 0x20 DUP6 ADD CALLDATALOAD PUSH8 0xFFFFFFFFFFFFFFFF DUP2 GT ISZERO PUSH2 0x1C12 JUMPI PUSH1 0x0 DUP1 REVERT JUMPDEST PUSH2 0x1C1E DUP8 DUP3 DUP9 ADD PUSH2 0x1B8E JUMP JUMPDEST SWAP1 SWAP5 POP SWAP3 POP POP PUSH1 0x40 DUP6 ADD CALLDATALOAD DUP1 ISZERO ISZERO DUP2 EQ PUSH2 0x1C37 JUMPI PUSH1 0x0 DUP1 REVERT JUMPDEST SWAP4 SWAP7 SWAP3 SWAP6 POP SWAP1 SWAP4 POP POP JUMP JUMPDEST PUSH1 0x0 PUSH1 0x20 DUP3 DUP5 SUB SLT ISZERO PUSH2 0x1C54 JUMPI PUSH1 0x0 DUP1 REVERT JUMPDEST PUSH2 0x1B6A DUP3 PUSH2 0x1B71 JUMP JUMPDEST PUSH1 0x0 DUP1 PUSH1 0x20 DUP4 DUP6 SUB SLT ISZERO PUSH2 0x1C70 JUMPI PUSH1 0x0 DUP1 REVERT JUMPDEST DUP3 CALLDATALOAD PUSH8 0xFFFFFFFFFFFFFFFF DUP2 GT ISZERO PUSH2 0x1C87 JUMPI PUSH1 0x0 DUP1 REVERT JUMPDEST PUSH2 0x1C93 DUP6 DUP3 DUP7 ADD PUSH2 0x1B8E JUMP JUMPDEST SWAP1 SWAP7 SWAP1 SWAP6 POP SWAP4 POP POP POP POP JUMP JUMPDEST PUSH1 0x0 DUP2 MLOAD DUP1 DUP5 MSTORE PUSH1 0x0 JUMPDEST DUP2 DUP2 LT ISZERO PUSH2 0x1CC5 JUMPI PUSH1 0x20 DUP2 DUP6 ADD DUP2 ADD MLOAD DUP7 DUP4 ADD DUP3 ADD MSTORE ADD PUSH2 0x1CA9 JUMP JUMPDEST POP PUSH1 0x0 PUSH1 0x20 DUP3 DUP7 ADD ADD MSTORE PUSH1 0x20 PUSH1 0x1F NOT PUSH1 0x1F DUP4 ADD AND DUP6 ADD ADD SWAP2 POP POP SWAP3 SWAP2 POP POP JUMP JUMPDEST DUP3 ISZERO ISZERO DUP2 MSTORE PUSH1 0x40 PUSH1 0x20 DUP3 ADD MSTORE PUSH1 0x0 PUSH2 0x1D00 PUSH1 0x40 DUP4 ADD DUP5 PUSH2 0x1C9F JUMP JUMPDEST SWAP5 SWAP4 POP POP POP POP JUMP JUMPDEST PUSH1 0x0 DUP1 PUSH1 0x0 PUSH1 0x40 DUP5 DUP7 SUB SLT ISZERO PUSH2 0x1D1D JUMPI PUSH1 0x0 DUP1 REVERT JUMPDEST DUP4 CALLDATALOAD PUSH8 0xFFFFFFFFFFFFFFFF DUP2 GT ISZERO PUSH2 0x1D34 JUMPI PUSH1 0x0 DUP1 REVERT JUMPDEST PUSH2 0x1D40 DUP7 DUP3 DUP8 ADD PUSH2 0x1B8E JUMP JUMPDEST SWAP1 SWAP8 SWAP1 SWAP7 POP PUSH1 0x20 SWAP6 SWAP1 SWAP6 ADD CALLDATALOAD SWAP5 SWAP4 POP POP POP POP JUMP JUMPDEST DUP1 MLOAD PUSH10 0xFFFFFFFFFFFFFFFFFFFF DUP2 AND DUP2 EQ PUSH2 0x1B89 JUMPI PUSH1 0x0 DUP1 REVERT JUMPDEST PUSH1 0x0 DUP1 PUSH1 0x0 DUP1 PUSH1 0x0 PUSH1 0xA0 DUP7 DUP9 SUB SLT ISZERO PUSH2 0x1D86 JUMPI PUSH1 0x0 DUP1 REVERT JUMPDEST PUSH2 0x1D8F DUP7 PUSH2 0x1D54 JUMP JUMPDEST SWAP5 POP PUSH1 0x20 DUP7 ADD MLOAD SWAP4 POP PUSH1 0x40 DUP7 ADD MLOAD SWAP3 POP PUSH1 0x60 DUP7 ADD MLOAD SWAP2 POP PUSH2 0x1DB2 PUSH1 0x80 DUP8 ADD PUSH2 0x1D54 JUMP JUMPDEST SWAP1 POP SWAP3 SWAP6 POP SWAP3 SWAP6 SWAP1 SWAP4 POP JUMP JUMPDEST PUSH4 0x4E487B71 PUSH1 0xE0 SHL PUSH1 0x0 MSTORE PUSH1 0x11 PUSH1 0x4 MSTORE PUSH1 0x24 PUSH1 0x0 REVERT JUMPDEST DUP2 DUP2 SUB DUP2 DUP2 GT ISZERO PUSH2 0x1DE7 JUMPI PUSH2 0x1DE7 PUSH2 0x1DBE JUMP JUMPDEST SWAP3 SWAP2 POP POP JUMP JUMPDEST DUP1 DUP3 MUL DUP2 ISZERO DUP3 DUP3 DIV DUP5 EQ OR PUSH2 0x1DE7 JUMPI PUSH2 0x1DE7 PUSH2 0x1DBE JUMP JUMPDEST PUSH1 0x0 DUP3 PUSH2 0x1E21 JUMPI PUSH4 0x4E487B71 PUSH1 0xE0 SHL PUSH1 0x0 MSTORE PUSH1 0x12 PUSH1 0x4 MSTORE PUSH1 0x24 PUSH1 0x0 REVERT JUMPDEST POP DIV SWAP1 JUMP JUMPDEST DUP1 DUP3 ADD DUP1 DUP3 GT ISZERO PUSH2 0x1DE7 JUMPI PUSH2 0x1DE7 PUSH2 0x1DBE JUMP JUMPDEST PUSH4 0x4E487B71 PUSH1 0xE0 SHL PUSH1 0x0 MSTORE PUSH1 0x32 PUSH1 0x4 MSTORE PUSH1 0x24 PUSH1 0x0 REVERT JUMPDEST PUSH1 0x20 DUP1 DUP3 MSTORE PUSH1 0x34 SWAP1 DUP3 ADD MSTORE PUSH32 0x416567697353656E74696E656C3A2066756E6374696F6E20626C6F636B656420 PUSH1 0x40 DUP3 ADD MSTORE PUSH20 0x64756520746F20656C657661746564207269736B PUSH1 0x60 SHL PUSH1 0x60 DUP3 ADD MSTORE PUSH1 0x80 ADD SWAP1 JUMP JUMPDEST DUP2 DUP4 MSTORE DUP2 DUP2 PUSH1 0x20 DUP6 ADD CALLDATACOPY POP PUSH1 0x0 DUP3 DUP3 ADD PUSH1 0x20 SWAP1 DUP2 ADD SWAP2 SWAP1 SWAP2 MSTORE PUSH1 0x1F SWAP1 SWAP2 ADD PUSH1 0x1F NOT AND SWAP1 SWAP2 ADD ADD SWAP1 JUMP JUMPDEST PUSH1 0x40 DUP2 MSTORE PUSH1 0x0 PUSH2 0x1EE0 PUSH1 0x40 DUP4 ADD DUP6 DUP8 PUSH2 0x1EA3 JUMP JUMPDEST SWAP1 POP DUP3 PUSH1 0x20 DUP4 ADD MSTORE SWAP5 SWAP4 POP POP POP POP JUMP JUMPDEST PUSH1 0x20 DUP2 MSTORE PUSH1 0x0 PUSH2 0x1D00 PUSH1 0x20 DUP4 ADD DUP5 DUP7 PUSH2 0x1EA3 JUMP JUMPDEST PUSH1 0x0 PUSH1 0x1 DUP3 ADD PUSH2 0x1F16 JUMPI PUSH2 0x1F16 PUSH2 0x1DBE JUMP JUMPDEST POP PUSH1 0x1 ADD SWAP1 JUMP JUMPDEST PUSH1 0x40 DUP2 MSTORE PUSH1 0x0 PUSH2 0x1F30 PUSH1 0x40 DUP4 ADD DUP6 PUSH2 0x1C9F JUMP JUMPDEST SWAP1 POP DUP3 PUSH1 0x20 DUP4 ADD MSTORE SWAP4 SWAP3 POP POP POP JUMP JUMPDEST PUSH1 0x20 DUP2 MSTORE PUSH1 0x0 PUSH2 0x1B6A PUSH1 0x20 DUP4 ADD DUP5 PUSH2 0x1C9F JUMP INVALID 0xF7 PUSH28 0x2462A38F3AA44A4A41A100284634B280CC5FE066C11DD9E6EED07FB9 0xC7 0xA7 PREVRANDAO CODESIZE 0xF6 DUP10 0x2D SWAP3 DUP10 0xC3 MSIZE PUSH16 0xD9D541CCF5130FE79278A0A5D573F37D PREVRANDAO RETURN SHL 0x1E MCOPY CALLER 0x2E BYTE PUSH30 0x4D13322E7B96F9A57413E1525C250FB7A9021CF91D1540D5B69F16A49FC5 0xEB 0xEA 0xEC COINBASE INVALID RETURN SWAP8 STOP DUP14 DUP13 PUSH12 0xC797BA8B201B62033B6027B1 DUP12 PUSH7 0xDD1C9C8B13612F DUP7 SSTORE PUSH9 0xB51037C286EDCA2AD4 CALLDATACOPY GAS 0xC0 PUSH0 SELFDESTRUCT 0xD2 PUSH0 DIV 0x24 PUSH29 0xC8C79E07D0B487CA06A2646970667358221220167BB39465DB7604557A SLT ADDMOD 0xCD STOP SHR SELFDESTRUCT 0xE4 0xD0 SAR SHL 0xB7 SGT 0xF7 0xC6 GASPRICE DUP1 0x22 0xAB 0xE0 0xD1 SHR 0xE0 PUSH5 0x736F6C6343 STOP ADDMOD XOR STOP CALLER "},"methodIdentifiers":{"RISK_HIGH()":"9aa90ca7","RISK_LOW()":"8acb698a","RISK_MED()":"78a759f3","SEL_BORROW()":"7cc0d5f1","SEL_DEPOSIT()":"ee338936","SEL_LIQUIDATE()":"8926e6e1","SEL_REPAY()":"1d2e098f","SEL_TRADE()":"628803fc","SEL_WITHDRAW()":"77c4c336","analyzeRisk()":"00f2238d","borrow(uint256)":"c5ebeaec","burstThreshold()":"cbf5d8ba","burstWindow()":"1c1e4f1f","checkUpkeep(bytes)":"6e04ff0d","deposit()":"d0e30db0","emergencyPause()":"51858e27","functionBlocked(bytes4)":"7028b961","lastAnalyzedAt()":"8c976766","lastPrice()":"053f14da","liquidate(address)":"2f865568","owner()":"8da5cb5b","paused()":"5c975abb","performUpkeep(bytes)":"4585e33b","priceFeed()":"741bef1a","priceThreshold()":"cc2f6093","renounceOwnership()":"715018a6","repay(uint256)":"371fd8e6","resetRisk()":"c6775379","riskScore()":"bfd02991","selectorCallCount(bytes4)":"3c8e6a7c","selectorWindowStart(bytes4)":"362320cd","setBlockedManually(bytes4,string,bool)":"2fedf3cc","setBurstParams(uint256,uint256)":"2173ae96","setPriceFeed(address)":"724e78da","setPriceThreshold(uint256)":"4fb52c70","setRiskScoreManually(uint256)":"e9fdfc9d","setUpkeepInterval(uint256)":"72e4c9f6","simulateAttack(uint256)":"f58f4f1b","totalDeposits()":"7d882097","trade(string,uint256)":"f77b2462","transferOwnership(address)":"f2fde38b","unpause()":"3f4ba83a","upkeepInterval()":"5a74373c","withdraw(uint256)":"2e1a7d4d"}}}}}